:0400000052EF00F0CB
:10000800FACF1FF0FBCF20F0E9CF21F0EACF22F0A2
:10001800E1CF23F0E2CF24F0D9CF25F0DACF26F0D4
:10002800F3CF27F0F4CF28F0F6CF29F0F7CF2AF056
:10003800F8CF2BF0F5CF2CF0F2BAF2A403D041ECB4
:100048002BF00FD09DB89EA803D0BCEC29F009D0A6
:100058009DBA9EAA03D005EC2AF003D081EC18F0D3
:1000680000D02CC0F5FF2BC0F8FF2AC0F7FF29C02D
:10007800F6FF28C0F4FF27C0F3FF26C0DAFF25C02B
:10008800D9FF24C0E2FF23C0E1FF22C0EAFF21C05C
:10009800E9FF20C0FBFF1FC0FAFF1100DEEF25F0CB
:1000A80026EC2BF0D7EC17F0A3EC29F0010E000199
:1000B800F26F5BC102F35CC103F35DC104F35EC17F
:1000C80005F3000E03010E6F000E0301016F000E11
:1000D8000301006F000E0301066F000E076F000E8C
:1000E800086F000E096F000E03010A6F000E0B6FF8
:1000F800000E0C6F000E0D6FF28EF28C00D08A8805
:1001080000D08A8600D0898C00D0898A00D0000E61
:100118000001616F280E606F4BEC2AF000D08990C7
:1001280000D0010E0001616FF40E606F4BEC2AF0F5
:100138008D0E0001716F760E0001726FA1EC26F032
:100148004B0E0001716F770E0001726FA1EC26F063
:10015800DB0E0001716F7B0E0001726FA1EC26F0BF
:10016800A1EC09F00001EC6F0001EC510001D8B4DA
:1001780009D0440E0001716F790E0001726FA1EC75
:1001880026F009D0850E0001716F750E0001726F9F
:10019800A1EC26F000D06CC160F06DC161F031ECCB
:1001A8002BF0A9EC1CF00001EC6F0001EC510001F0
:1001B800D8B409D0200E0001716F7A0E0001726F59
:1001C800A1EC26F008D0440E0001716F750E0001F5
:1001D800726FA1EC26F0680E0001716F7B0E0001B2
:1001E800726FA1EC26F0FB0E0001636F7F0E000119
:1001F800646F020E0001656F44EC1EF00009D8A47C
:1002080009D0B40E0001716F790E0001726FA1EC74
:1002180026F00BD0010E0001ED6F000E0001616F9A
:10022800140E606F4BEC2AF000D0B6EC27F06CC0CF
:100238006EF06DC06FF0000E0001716F640E706F8C
:100248000EEC24F06EC074F06FC075F062EC2AF00A
:100258000001ED510001D8B499D0C40E0001636FBC
:100268007E0E0001646F0F0E0001656F44EC1EF0F6
:100278000009D8A409D07F0E0001716F780E000123
:10028800726FA1EC26F000D02A0E0001636F7B0E7E
:100298000001646F1E0E0001656F44EC1EF000093A
:1002A800D8A409D0D20E0001716F770E0001726FC9
:1002B800A1EC26F000D0EE0E0001636F7C0E000169
:1002C800646F170E0001656F44EC1EF00009D8A496
:1002D80009D0C00E0001716F750E0001726FA1EC9C
:1002E80026F000D00001EC510001D8B419D000016B
:1002F800E7512BEC17F00009D8A409D0790E0001BA
:10030800716F770E0001726FA1EC26F009D0D60E3E
:100318000001716F7C0E0001726FA1EC26F000D015
:100328000001E751D8B420D0000E0001616F500ED3
:10033800606F4BEC2AF00001E7511BEC14F0000948
:10034800D8A409D0EF0E0001716F760E0001726F0C
:10035800A1EC26F019D01D0E0001716F7D0E000171
:10036800726FA1EC26F010D0010E03010A6F000E87
:100378000B6F000E0C6F000E0D6F010E0001F36F76
:10038800010E0001E76F00D08A9600D00001EE51FF
:10039800D8A404D00001E851D8B403D054EC2BF011
:1003A80003D052EC2BF000D0010E0001EF6F7AEC75
:1003B80016F0920E0001716F7F0E0001726FA1ECB2
:1003C80026F0000E0001F16F000E0301026F000E0F
:1003D8000301036F000E0301046F000E0301056F94
:1003E800000E03010E6F000E0301016F00D0010122
:1003F80070510101D8B414D00001F32B0D0E000187
:10040800F36504D0010E0001F36F00D00001F35131
:10041800E8EC14F0000E0101706F00D08A9800D04B
:100428000001F251D8B4E3D755EC25F00001F151A1
:100438000301066F076B086B096BBDD30001F1510F
:100448000001D96FDA6B0001D91FDA1FD94BDA2BFB
:10045800030106510001D927030107510001DA23DE
:10046800C00E0001D925D96E020E0001DA21DA6E1C
:10047800DF5003010F6F0001F107080E03010F1988
:10048800D8B405D07F0E03010F19D8A435D00301C5
:100498000E510301D8B42DD0030101510301D8A492
:1004A80020D0FF0E0001D96FFF0E0001DA6F0301A3
:1004B8000E510001DB6FDC6B0001D9510001DB2715
:1004C8000001DA510001DC23020E0001DB25D96EA0
:1004D800030E0001DC21DA6E000EDF6E03010E0749
:1004E80028D0030101510301D8B423D00301010727
:1004F80020D0010E18D01DD00D0E03010F19D8B44D
:1005080018D0040E03010E6111D003010E51010D24
:10051800020EF324D96E030EF420DA6E0FC3DFFF48
:1005280003010E2B000E0301006F03D00301012B02
:1005380000D00D0E03010F19D8A424D303010E51C6
:100548000301D8A4AFD2F5D2ADD27AEC16F0F1D22D
:1005580000EC13F0000E0001EF6F00D08A8600D087
:100568000001E7512BEC17F00009D8A409D0790E47
:100578000001716F770E0001726FA1EC26F009D0AF
:10058800D60E0001716F7C0E0001726FA1EC26F08F
:1005980000D00001E7511BEC14F00009D8A4A8D141
:1005A800EF0E0001716F760E0001726FA1EC26F05C
:1005B8009FD19ED1BED249EC0CF0BBD28B0E00016C
:1005C800716F7D0E0001726FA1EC26F0B2D28A869F
:1005D80000D0B40E0001636F7E0E0001646F0F0E31
:1005E8000001656F44EC1EF00009D8A409D0C00EC4
:1005F8000001716F760E0001726FA1EC26F078D1C0
:10060800060E0001716F7D0E0001726FA1EC26F0DD
:100618006FD16ED18ED28A8600D0C40E0001636F6E
:100628007E0E0001646F0F0E0001656F44EC1EF032
:100638000009D8A409D01D0E0001716F770E0001C2
:10064800726FA1EC26F054D1330E0001716F7D0E4C
:100658000001726FA1EC26F04BD14AD16AD2000E8C
:100668000001EE6F000E0001E86F52EC2BF05F0EF8
:100678000001716F7D0E0001726FA1EC26F019D098
:10068800010E0001E86F8B0E0001716F7D0E0001F5
:10069800726FA1EC26F00DD0010E0001EE6F54EC44
:1006A8002BF0A40E0001716F7B0E0001726FA1EC9C
:1006B80026F0000EBDD0EB0E0001716F7A0E00011E
:1006C800726FA1EC26F0070E90EC10F07CC023F1BD
:1006D8007DC024F17EC025F17FC026F100D08A8636
:1006E80000D0000E0001EF6F0001E7512BEC17F06E
:1006F8000009D8A409D0790E0001716F770E0001A6
:10070800726FA1EC26F0F4D0D60E0001716F7C0E4A
:100718000001726FA1EC26F0EBD0EAD00AD2CA0E23
:100728000001716F7A0E0001726FA1EC26F0070EBE
:1007380090EC10F07CC027F17DC028F17EC029F133
:100748007FC02AF100D08A8600D0000E0001EF6F2A
:100758000001E7512BEC17F00009D8A409D0790E55
:100768000001716F770E0001726FA1EC26F0C0D006
:10077800D60E0001716F7C0E0001726FA1EC26F09D
:10078800B7D0B6D0D6D1900E0001716F760E0001A9
:10079800726FA1EC26F0000E90EC10F07CC02BF1EB
:1007A8007DC02CF17EC02DF17FC02EF100D08A864D
:1007B80000D0000E0001EF6F0001E7512BEC17F09D
:1007C8000009D8A409D0790E0001716F770E0001D5
:1007D800726FA1EC26F08CD0D60E0001716F7C0EE2
:1007E8000001726FA1EC26F083D082D0A2D18A8654
:1007F80000D054EC27F0B30E0001716F7D0E00019C
:10080800726FA1EC26F074D073D093D18A8600D091
:100818001AEC1CF0CFEC21F0F60E0001716F7B0E84
:100828000001726FA1EC26F000D08A9600D0010E6C
:100838000001EF6F7ED1750E0001716F7D0E000112
:10084800726FA1EC26F000D08A86000E90EC10F0B2
:100858007CC00AF37DC00BF37EC00CF37FC00DF3A0
:1008680003010A5103010B1103010C1103010D11BE
:10087800D8B435D003010D5103010C1103010B113C
:1008880025E10E0E03010A5DD8B020D0000E00014C
:10089800EF6F03010A511BEC14F00009D8A409D02A
:1008A800EF0E0001716F760E0001726FA1EC26F059
:1008B8001FD01D0E0001716F7D0E0001726FA1EC3B
:1008C80026F00AC3E7F00AC3F3F012D01E0E0001A7
:1008D800716F790E0001726FA1EC26F009D00B0E32
:1008E8000001716F7B0E0001726FA1EC26F000D041
:1008F8008A961FD12C0E0001716F760E0001726F5F
:10090800A1EC26F0F70E0001716F750E0001726FF1
:10091800A1EC26F000D0899C00D0898A00D089807B
:1009280000D0000E0001616F640E606F4BEC2AF07E
:1009380000D0899000D0000E0001616F0A0E606F30
:100948004BEC2AF000D055EC25F0F29EF29C000109
:10095800F1510301066F076B086B096B20D000018A
:10096800F1510001D96FDA6B0001D91FDA1FD94B99
:10097800DA2B030106510001D927030107510001B1
:10098800DA23C00E0001D925D96E020E0001DA2142
:10099800DA6EDF5039EC2BF00001F10700D00001CE
:1009A800F151D8A4DCD7F28EF28C05D0D4EC28F023
:1009B800EFEC2AF000D04950D8B4C5D7F7D7C3D741
:1009C800B8D0F70E0001716F780E0001726FA1ECBC
:1009D80026F0F70E0001716F750E0001726FA1EC21
:1009E80026F000D055EC25F00001F1510301066F07
:1009F800076B086B096B20D00001F1510001D96F1A
:100A0800DA6B0001D91FDA1FD94BDA2B0301065123
:100A18000001D927030107510001DA23C00E0001A4
:100A2800D925D96E020E0001DA21DA6EDF50B3EC57
:100A380028F00001F10700D00001F151D8B407D027
:100A4800DBD705D0D4EC28F0EFEC2AF000D04950E1
:100A5800D8B4C8D7F7D7C6D76CD0898083EF00F051
:100A68008D0E0001716F760E0001726FA1EC26F0F9
:100A78004B0E0001716F770E0001726FA1EC26F02A
:100A8800DB0E0001716F7B0E0001726FA1EC26F086
:100A980050D0A30E0001716F7E0E0001726FA1ECA1
:100AA80026F047D0020E0001606F030E0001616F4F
:100AB8000EC362F028EC19F0000AD8B446D5010A32
:100AC800D8B446D5030AD8B476D5010AD8B476D5B1
:100AD800070AD8B47CD5010AD8B49DD5030AD8B47E
:100AE800BED5010AD8B4CCD50F0AD8B4D5D5010AD9
:100AF800D8B4E1D5030AD8B412D6010AD8B443D67B
:100B0800070AD8B474D6010AD8B480D6030AD8B470
:100B180092D6010AD8B4EED61F0AD8B452D7010A21
:100B2800D8B49BD7030AD8B49BD7ED0AD8B4B1D7A9
:100B380000D0000E0301026F000E0301036F000EC8
:100B48000301046F000E0301056F0001EF51D8B4D3
:100B580009D0900E0001716F7F0E0001726FA1EC39
:100B680026F009D0960E0001716F7F0E0001726F9A
:100B7800A1EC26F000D0000E03010E6F000E030159
:100B8800016F19D0080E03010F19D8B405D07F0ED4
:100B980003010F19D8A40AD0030100510301D8A4F6
:100BA8000AD003010F51BAEC2AF005D003010F5106
:100BB800BAEC2AF000D00001F151D8B418D43ED4D0
:100BC80016D452EF00F05F0EF66E740EF76E080042
:100BD800F5CF00F1600EF66E740EF76E0800F5CFD3
:100BE80001F1610EF66E740EF76E0800F5CF02F192
:100BF80066C003F165C004F164C005F16BC006F17D
:100C08006AC007F169C008F168C009F16FC00AF14C
:100C18006EC00BF16DC00CF16CC00DF17CC00EF113
:100C28007BC00FF17AC010F170C060F071C061F044
:100C380090EC2AF0000160C092F0000161C093F0CE
:100C48000001000E93BFFF0E946F956F92C07FF066
:100C580093C080F094C081F095C082F0130E06D046
:100C68000001D8908233813380337F33E82EF8D760
:100C780000017F510101116F92C07FF093C080F095
:100C880094C081F095C082F00B0E06D00001D89078
:100C98008233813380337F33E82EF8D700017F51C8
:100CA8000101126F92C07FF093C080F094C081F070
:100CB80095C082F0030E06D00001D89082338133AC
:100CC80080337F33E82EF8D700017F510101136F7D
:100CD800E80E00017F6F030E0001806F20EE74F0B4
:100CE800DECF81F0DDCF82F000017F510001812746
:100CF800000180510001822382C081F00001826BD3
:100D080081BF8269070E0001811777C083F0000157
:100D1800D89083370001D89083370001D890833763
:100D280076C084F00001843BF00E8417000173AF95
:100D380004D00001856B852B02D00001856B050E60
:100D48000001866F0001D89085370001862FFAD7F9
:100D580092C087F0030E00018717060E0001886F06
:100D68000001D89087370001882FFAD700018751F2
:100D78000001851100018411000183110001811116
:100D88000101146F00017451E80F0101156F20EE85
:100D980078F0DECF7FF0DDCF80F080C07FF00001FB
:100DA800806B1F0E00017F1700017E39E846E00BBB
:100DB800E00B00017F110101166F78C017F1000EDA
:100DC8000001966F000E976F000E986F000E996FD6
:100DD800000E0001A06F030E9F6F0001A0BF0AD094
:100DE8000001A0515DE1180E00019F5DD8B058D0F8
:100DF80001D056D0000E00019F25D96E010E0001CA
:100E0800A021DA6E0101DFAE34D0000E00019F256B
:100E1800D96E010E0001A021DA6E000E00019F2597
:100E2800E16E010E0001A021E26EE7507F0BDF6E3C
:100E3800D8900001963500017F6F000197350001B9
:100E4800806F000198350001816F0001993500011C
:100E5800826F010E00017F110001966F0001805121
:100E68000001976F000181510001986F00018251C4
:100E78000FD0D890000196350001966F0001973584
:100E88000001976F000198350001986F00019935AE
:100E98000001996F00D000019F4BA02B9ED700D076
:100EA80096C07FF097C080F098C081F099C082F01A
:100EB8000F0E06D00001D8908233813380337F3300
:100EC800E82EF8D700017F517F0B0101186F96C0FB
:100ED8007FF097C080F098C081F099C082F0080E2A
:100EE80006D00001D8908233813380337F33E82ED7
:100EF800F8D700017F517F0B0101196F000196514E
:100F08007F0B01011A6F000E00019B6F000E9C6F92
:100F1800000E9D6F000E9E6F000E0001A06F030E65
:100F28009F6F0001A0BF0AD00001A05106E11B0E6F
:100F380000019F5DD8B09FD001D09DD0000E000168
:100F48009F25D96E010E0001A021DA6E0A0EDE1867
:100F5800D8B43BD0000E00019F25D96E010E0001C8
:100F6800A021DA6E0D0EDE18D8B42FD0000E0001C5
:100F78009F25D96E010E0001A021DA6E220EDE181F
:100F8800D8B423D0000E00019F25D96E010E0001B0
:100F9800A021DA6E2B0EDE18D8B417D0000E00018F
:100FA8009F25D96E010E0001A021DA6EDF50D8B45A
:100FB8000CD0000E00019F25D96E010E0001A02162
:100FC800DA6E200EDE18D8A439D0D89000019B35EF
:100FD80000017F6F00019C350001806F00019D3585
:100FE8000001816F00019E350001826F010E000132
:100FF8007F1100019B6F0001805100019C6F00016F
:10100800815100019D6F0001825100019E6F000E09
:1010180000019F25D96E010E0001A021DA6E000E95
:1010280000019F25E16E010E0001A021E26EE7504C
:1010380000017F6F00017F29DF6E12D0D890000178
:101048009B3500019B6F00019C3500019C6F0001DE
:101058009D3500019D6F00019E3500019E6F00D0F7
:1010680000019F4BA02B0001A0BF68D70001A05131
:1010780002E15DD700D09BC07FF09CC080F09DC08E
:1010880081F09EC082F0040ED89000017F3780372F
:1010980081378237E82EF8D77FC09BF080C09CF05C
:1010A80081C09DF082C09EF0000E00019A6F000E74
:1010B8000001A06F030E9F6F0001A0BFF3D001D005
:1010C800F1D000019F51070DF3CF7FF07F0E000193
:1010D800806F000E0001816F00017F2B04D0D89033
:1010E80000018037813700017F2FF9D780C08EF04B
:1010F80081C08FF00001000E8FBFFF0E906F916FBF
:1011080000019F51070DF3509BC07FF09CC080F0F9
:101118009DC081F09EC082F00001E82A05D0D890D9
:101128008233813380337F33E82EF9D700017F5132
:101138007F0B00019A6F0A0E00019A19D8B419D0D2
:101148000D0E00019A19D8B414D0220E00019A1974
:10115800D8B40FD02B0E00019A19D8B40AD00001C8
:101168009A510001D8B405D0200E00019A19D8A4CC
:1011780094D000019A2900019A6F00019F51070D30
:10118800F3CF7FF000019A510001806F816B00015D
:101198007F2B04D0D89000018037813700017F2F42
:1011A800F9D780C082F081C083F0000E000183BFB0
:1011B800FF0E846F856F8EC086F08FC087F090C059
:1011C80088F091C089F00001861F871F881F891F3A
:1011D80000019B510001861500018A6F00019C5196
:1011E8000001871500018B6F00019D5100018815D2
:1011F80000018C6F00019E510001891500018D6F5F
:101208000001825100018A1100019B6F0001835186
:1012180000018B1100019C6F0001845100018C11A9
:1012280000019D6F0001855100018D1100019E6F25
:101238009FC07FF0010E0001806F000E0001816FDA
:1012480000017F2B04D0D89000018037813700013E
:101258007F2FF9D780C082F081C083F0000E000193
:1012680083BFFF0E846F856F00019B5100018211BF
:1012780000019B6F00019C510001831100019C6FCC
:1012880000019D510001841100019D6F00019E51D4
:101298000001851100019E6F00D000019F07D8A0B2
:1012A800A0070AD79BC07FF09CC080F09DC081F04A
:1012B8009EC082F0160E06D00001D890823381338A
:1012C80080337F33E82EF8D700017F517F0B01016F
:1012D8001B6F9BC07FF09CC080F09DC081F09EC0BA
:1012E80082F00F0E06D00001D8908233813380330C
:1012F8007F33E82EF8D700017F517F0B01011C6F67
:101308009BC07FF09CC080F09DC081F09EC082F0A1
:10131800080E06D00001D8908233813380337F33A2
:10132800E82EF8D700017F517F0B01011D6F0001E6
:101338009B517F0B01011E6F1200000E0001806F90
:10134800000E816F000E826F000E836F000E000189
:101358007F6F000E7E6F000E0001856F000E846F98
:101368004ED0740E00018425D96E010E000185212E
:10137800DA6E00018451000180250EEC2BF0DF6E3F
:10138800740E00018425D96E010E00018521DA6EE4
:10139800DF5000016A6F00016A5101016C1B0001F6
:1013A80084A110D0740E00018425D96E010E0001AD
:1013B8008521DA6EDF5000016A6F00016A51010170
:1013C8006C1B19D0740E00018425D96E010E000122
:1013D8008521DA6EDF5000016A6F00016A51000151
:1013E8006C6F6B6B00016B5101016C1B00016C5140
:1013F80001016D1B00D00001844B852B00D0585093
:1014080000016A6F6B6B00016A510001845D000185
:101418008551800A00016C6F00016B51800A000140
:101428006C59D8A09ED75850000180250EEC2BF09F
:1014380000016A6F00016A5100016C6F6B6B5850B4
:101448000001802500016D6F00016D290EEC2BF065
:1014580000016E6F00016E5100016B1100017E6F7B
:1014680000016C5100017F6F740E0001606F010E66
:101478000001616F58C062F00001636B46EC0FF029
:1014880000017E510001601906E100017F51000151
:101498006119D8B402D0000E120075C16AF00001BB
:1014A8006B6B6C6B6D6B6CC06DF06BC06CF06AC075
:1014B8006BF000016A6B74C16EF000016F6B706BAA
:1014C800716B6FC071F06EC070F000016F6B6E6B66
:1014D80000016A5100016E110001726F00016B5129
:1014E80000016F110001736F00016C510001701150
:1014F8000001746F00016D51000171110001756FD9
:10150800010176510001721101011F6F0001735131
:101518000101206F000174510101216F0001755113
:101528000101226F79C16AF000016B6B6C6B6D6B06
:101538006CC06DF06BC06CF06AC06BF000016A6B38
:1015480078C16EF000016F6B706B716B6FC071F0DA
:101558006EC070F000016F6B6E6B77C172F00001A6
:10156800736B746B756B72C075F00001746B736B81
:10157800726B00016E51000172110001766F00015B
:101588006F51000173110001776F00017051000164
:1015980074110001786F000171510001751100018B
:1015A800796F00016A510001761100017A6F00011C
:1015B8006B510001771100017B6F00016C51000134
:1015C800781100017C6F00016D5100017911000153
:1015D8007D6F01017A5100017A110101236F000129
:1015E8007B510101246F00017C510101256F00012D
:1015F8007D510101266F7DC16AF000016B6B6C6B38
:101608006D6B6CC06DF06BC06CF06AC06BF0000164
:101618006A6B7CC16EF000016F6B706B716B6FC091
:1016280071F06EC070F000016F6B6E6B7BC172F071
:101638000001736B746B756B72C075F00001746B8D
:10164800736B726B00016E51000172110001766FAD
:1016580000016F51000173110001776F0001705193
:10166800000174110001786F0001715100017511BA
:101678000001796F00016A510001761100017A6F4B
:1016880000016B510001771100017B6F00016C5163
:101698000001781100017C6F00016D510001791182
:1016A80000017D6F01017E5100017A110101276F50
:1016B80000017B510101286F00017C510101296F54
:1016C80000017D5101012A6F81C16AF000016B6B35
:1016D8006C6B6D6B6CC06DF06BC06CF06AC06BF0BE
:1016E80000016A6B80C16EF000016F6B706B716BEB
:1016F8006FC071F06EC070F000016F6B6E6B7FC1D0
:1017080072F00001736B746B756B72C075F0000139
:10171800746B736B726B00016E51000172110001E2
:10172800766F00016F51000173110001776F00019E
:101738007051000174110001786F000171510001AE
:1017480075110001796F00016A51000176110001DD
:101758007A6F00016B510001771100017B6F000166
:101768006C510001781100017C6F00016D5100017E
:10177800791100017D6F0101825100017A11010187
:101788002B6F00017B5101012C6F00017C5101017D
:101798002D6F00017D5101012E6F0101845183C11C
:1017A8006AF000016B6B6AC06BF000016A6B0001A4
:1017B8006A1101012F6F00016B510101306F0101A6
:1017C8008551D8B402D0010E01D0000E0101316F4D
:1017D80001018651D8B402D0010E01D0000E0101DA
:1017E800326F87C139F10101885100016A6F010127
:1017F80089510101336F6AC034F18BC16AF000016D
:101808006B6B6C6B6D6B6CC06DF06BC06CF06AC011
:101818006BF000016A6B8AC16EF000016F6B706B30
:10182800716B6FC071F06EC070F000016F6B6E6B02
:1018380000016A5100016E110001726F00016B51C5
:1018480000016F110001736F00016C5100017011EC
:101858000001746F00016D51000171110001756F75
:1018680001018C51000172110101356F00017351A2
:101878000101366F000174510101376F0001755184
:101888000101386F010E120012008D0E0001716FF8
:10189800760E0001726FA1EC26F01B0E0001716F2D
:1018A8007E0E0001726FA1EC26F01FC184F020C1EA
:1018B80085F021C186F022C187F0000E0001896FF2
:1018C8000A0E886F21EC26F08D0E0001716F760EDE
:1018D8000001726FA1EC26F0E80E0001716F7D0E19
:1018E8000001726FA1EC26F023C184F024C185F0B9
:1018F80025C186F026C187F0000E0001896F0A0E07
:10190800886F21EC26F08D0E0001716F760E0001B4
:10191800726FA1EC26F02C0E0001716F7E0E000193
:10192800726FA1EC26F027C184F028C185F029C187
:1019380086F02AC187F0000E0001896F0A0E886FB1
:1019480021EC26F08D0E0001716F760E0001726F8A
:10195800A1EC26F0F90E0001716F7D0E0001726F87
:10196800A1EC26F02BC184F02CC185F02DC186F0A6
:101978002EC187F0000E0001896F0A0E886F21ECD6
:1019880026F08D0E0001716F760E0001726FA1ECCA
:1019980026F00A0E0001716F7E0E0001726FA1EC35
:1019A80026F021EE2FF0DECF84F0DDCF85F00001A8
:1019B800000E85BFFF0E866F876F000E0001896FCE
:1019C8000A0E886F21EC26F08D0E0001716F760EDD
:1019D8000001726FA1EC26F05F0E0001716F7E0EA0
:1019E8000001726FA1EC26F0010131510001846FF2
:1019F800856B866B876B000E0001896F0A0E886FF6
:101A080021EC26F08D0E0001716F760E0001726FC9
:101A1800A1EC26F04E0E0001716F7E0E0001726F70
:101A2800A1EC26F0010132510001846F856B866BB1
:101A3800876B000E0001896F0A0E886F21EC26F073
:101A48008D0E0001716F760E0001726FA1EC26F009
:101A58003D0E0001716F7E0E0001726FA1EC26F041
:101A6800010139510001846F856B866B876B000E0D
:101A78000001896F0A0E886F21EC26F08D0E000197
:101A8800716F760E0001726FA1EC26F0D70E00017F
:101A9800716F7D0E0001726FA1EC26F033C184F0E6
:101AA80034C185F00001866B876B000E0001896FD9
:101AB800100E886F21EC26F08D0E0001716F760EE6
:101AC8000001726FA1EC26F0C60E0001716F7D0E49
:101AD8000001726FA1EC26F035C184F036C185F0A3
:101AE80037C186F038C187F0000E0001896F0A0EF1
:101AF800886F21EC26F08D0E0001716F760E0001C3
:101B0800726FA1EC26F08D0E0001716F760E000148
:101B1800726FA1EC26F0700E0001716F7E0E00014D
:101B2800726FA1EC26F00001EE510001846F856B05
:101B3800866B876B000E0001896F0A0E886F21EC97
:101B480026F08D0E0001716F760E0001726FA1EC08
:101B580026F0920E0001716F7E0E0001726FA1ECEB
:101B680026F00001E8510001846F856B866B876B56
:101B7800000E0001896F0A0E886F21EC26F08D0E89
:101B88000001716F760E0001726FA1EC26F0810ED4
:101B98000001716F7E0E0001726FA1EC26F000014A
:101BA800E7510001846F856B866B876B000E00011F
:101BB800896F0A0E886F21EC26F08D0E0001716F77
:101BC800760E0001726FA1EC26F00001EF51D8A447
:101BD8001200860E0001716F7B0E0001726FA1EC7E
:101BE80026F01200120004013205D8A411D0040115
:101BF80030511F0B0009D8A40BD0538E030E0401DB
:101C08003119D8A402D0010E01D0000E416E00D0C7
:101C180004013251D8A41200040130511F0B020AEA
:101C2800D8A41200040134510F0B0009D8B41200D3
:101C3800040134510F0B156E030E15601200200EAF
:101C48004418D8A41200538E040134BF1BD00401D9
:101C580034510F0B156E1550020D510EF324D96E29
:101C6800010EF420DA6EDECF19F0DDCF1AF0040190
:101C780034510F0B156E1550010D5F0EF324D96EFC
:101C8800010E1AD0040134510F0B156E1550020DB8
:101C9800350EF324D96E000EF420DA6EDECF19F07B
:101CA800DDCF1AF0040134510F0B156E1550010DDC
:101CB800DD0EF324D96E000EF420DA6EDF50186EB4
:101CC80000D018B002D0199402D0198400D00401B1
:101CD80034BF0BD0040134510F0B156E1550020D93
:101CE800510EF324D96E010E0AD0040134510F0BA2
:101CF800156E1550020D350EF324D96E000EF42022
:101D0800DA6E19C0DEFF1AC0DDFF00D0030E040131
:101D18003119D8A433D019C0D9FF1AC0DAFFDFAE01
:101D280020D0040134BF0ED0040134510F0B156EBE
:101D38001550010D5F0EF324D96E010EF420DA6EF2
:101D480001010DD0040134510F0B156E1550010D12
:101D5800DD0EF324D96E000EF420DA6E0001DF8266
:101D680000D019C0D9FF1AC0DAFF000EDB8419C0F1
:101D7800D9FF1AC0DAFF000EDB8E1200040E191A02
:101D880019C0D9FF1AC0DAFFDFAE1BD019C0D9FFBE
:101D98001AC0DAFF7F0EDF1619C0D9FF1AC0DAFFA2
:101DA800000EDB8C000E0E6E050E0D6E19C00FF0C6
:101DB8001AC010F0000E126E020E116E61EC26F0C1
:101DC80007D019C0D9FF1AC0DAFF000EDB8C00D08B
:101DD800040E191A18B206D019C0D9FF1AC0DAFFB2
:101DE800DFAE35D0040134BF0ED0040134510F0BDF
:101DF800156E1550010D5F0EF324D96E010EF420F7
:101E0800DA6E01010DD0040134510F0B156E155017
:101E1800010DDD0EF324D96E000EF420DA6E0001F8
:101E2800DF9200D019C0D9FF1AC0DAFF3B0EDF16C7
:101E3800000E0E6E050E0D6E19C00FF01AC010F0D0
:101E4800000E126E020E116E61EC26F007D019C05A
:101E5800D9FF1AC0DAFF3B0EDF1600D00401345157
:101E68000F0B156E1550010D6A0EF324166E0F0E2A
:101E7800F420176E16C0D9FF17C0DAFFFE0EDF1662
:101E880012001200000E0001696F000E686F000159
:101E9800625100016311D8A405D068C060F069C020
:101EA80061F01200FF0E0001681B00016251000181
:101EB80060250001666F0001635100016121000186
:101EC800676F00D060C0D9FF61C0DAFFDF50000142
:101ED800646F000164510001681B0001604B612BB5
:101EE800000168B10CD0D890000169310001646F1D
:101EF800000168310001686F64C069F012D0B20E49
:101F080068C064F069C065F00001D8906533643337
:101F1800000164190001686F000165510001696FD3
:101F280000D0000168B10CD0D890000169310001DF
:101F3800646F000168310001686F64C069F012D0F5
:101F4800B20E68C064F069C065F00001D8906533CE
:101F58006433000164190001686F000165510001D4
:101F6800696F00D0000168B10CD0D89000016931C8
:101F78000001646F000168310001686F64C069F096
:101F880012D0B20E68C064F069C065F00001D89044
:101F980065336433000164190001686F00016551FD
:101FA8000001696F00D0000168B10CD0D890000121
:101FB80069310001646F000168310001686F64C015
:101FC80069F012D0B20E68C064F069C065F0000113
:101FD800D89065336433000164190001686F00010B
:101FE80065510001696F00D0000168B10CD0D8902C
:101FF800000169310001646F000168310001686FF8
:1020080064C069F012D0B20E68C064F069C065F0AF
:102018000001D89065336433000164190001686FCA
:10202800000165510001696F00D0000168B10CD052
:10203800D890000169310001646F00016831000126
:10204800686F64C069F012D0B20E68C064F069C0ED
:1020580065F00001D890653364330001641900010C
:10206800686F000165510001696F00D0000168B117
:102078000CD0D890000169310001646F000168310B
:102088000001686F64C069F012D0B20E68C064F0D5
:1020980069C065F00001D8906533643300016419A4
:1020A8000001686F000165510001696F00D00001EF
:1020B80068B10CD0D890000169310001646F00014B
:1020C80068310001686F64C069F011D0B20E68C051
:1020D80064F069C065F00001D8906533643300018D
:1020E80064190001686F000165510001696F000102
:1020F80066510001605D0001675100016159D8A077
:10210800E1D6FF0E000168190001606F00016951F6
:102118000001616F1200120000018F6F21EE3AF08A
:1021280010EE82F00C0EDBCFE3FFE806FCE2000EB7
:102138000001986F000E996F000E9A6F000E9B6F4A
:10214800000E00019D6F000E0001966F000E000149
:102158009C6F000E0001976F000E0001906F000E3B
:10216800916F000E926F000E936F8A0E0001716FCF
:102178007F0E0001726FA1EC26F095D055EC25F08A
:102188000001F1510001906F916B926B936B85D0B8
:102198000001F1510001806F816B0001801F811FD8
:1021A800804B812B00019051000180270001915143
:1021B80000018123C00E00018025D96E020E0001A6
:1021C8008121DA6EDF5000019E6F0001F107080ED1
:1021D80000019E19D8B405D07F0E00019E19D8A41D
:1021E80008D000019C510001D8B457D000019C07C9
:1021F80054D00C0E00019C612ED000019D51800A24
:10220800790FD8B028D00D0E00019E19D8B41AD075
:102218002E0E00019E19D8B415D000019C51010D55
:10222800820EF324D96E000EF420DA6E9EC0DFFF12
:10223800000196510001D8B402D000019D2B000185
:102248009C2B00D02E0E00019E19D8A404D0010E9C
:102258000001966F00D00D0E00019E19D8A418D069
:1022680000019C510001D8A404D0300EBAEC2AF029
:1022780000D0010E0001976F00019C51010D820EE4
:10228800F324D96E000EF420DA6E000EDF6E05D04E
:1022980000019E51BAEC2AF000D00001F151D8B4E7
:1022A80002D076D700D0000197510001D8B466D784
:1022B800820E00016C6F000E00016D6F940E00011C
:1022C8006E6F000E00016F6F000E0001716F0A0E35
:1022D800706FD4EC11F06CC098F06DC099F06EC0BE
:1022E8009AF06FC09BF000019D51000800018F25F6
:1022F80000019D6F00019DBF20D043D01ED098C023
:1023080060F099C061F09AC062F09BC063F00A0E59
:102318000001646F000E656F000E666F000E676F38
:1023280062EC1AF060C098F061C099F062C09AF04F
:1023380063C09BF000019D2B00D000019DAF27D00A
:10234800DED725D01ED098C060F099C061F09AC041
:1023580062F09BC063F00A0E0001646F000E656FA7
:10236800000E666F000E676FE0EC26F060C098F014
:1023780061C099F062C09AF063C09BF000019D07AC
:1023880000D000019D51800A7F0FD8B0DCD798C0DB
:102398007CF099C07DF09AC07EF09BC07FF012005F
:1023A8006CC0D9FF6DC0DAFFDF5000017B6F000100
:1023B8006C4B6D2B00017B5151EC29F0D8B0F0D754
:1023C800000E0001776F000E786F000E796F000E17
:1023D8007A6F000E0001766F2D0E00017B19D8A4CC
:1023E80008D0010E0001766F09D000016C4B6D2BEF
:1023F8000ED02B0E00017B19D8A409D06CC0D9FFD0
:102408006DC0DAFFDF5000017B6FEFD700D0300ED0
:1024180000017B19D8A43DD06CC0D9FF6DC0DAFF8C
:10242800DF5000017B6F00016C4B6D2B0001705178
:1024380000017111D8B407D0100E00017019000105
:102448007111D8A41AD0780E00017B19D8B405D020
:10245800580E00017B19D8A410D0000E0001716F2E
:10246800100E706F6CC0D9FF6DC0DAFFDF5000012D
:102478007B6F00016C4B6D2B0CD00001705100017B
:102488007111D8A406D0000E0001716F080E706F8C
:1024980000D00001705100017111D8A406D0000EBF
:1024A8000001716F0A0E706F00D000017B5133EC90
:1024B80029F0D8A008D000017B51DEEC2AF0C90F22
:1024C80000017B6F0CD000017B511DEC2AF0D8A0D5
:1024D80051D0300E00017B5F02D04CD000D00001FB
:1024E8007B510001726F736B000170510001725DC6
:1024F80000017351800A0001746F00017151800A54
:1025080000017459D8B036D001D034D070C060F012
:1025180071C061F00001000E61BFFF0E626F636F52
:1025280077C064F078C065F079C066F07AC067F06B
:10253800E0EC26F000017B51000160250001776F77
:10254800000E000161210001786F000E0001622178
:102558000001796F000E0001632100017A6F6CC0E1
:10256800D9FF6DC0DAFFDF5000017B6F00016C4BB3
:102578006D2B9BD700016E5100016F11D8B413D099
:10258800FF0E00016C250001726FFF0E00016D2126
:102598000001736F6EC0D9FF6FC0DAFF72C0DEFF33
:1025A80073C0DDFF00D0000176510001D8B41BD004
:1025B80077C072F078C073F079C074F07AC075F0A3
:1025C8000001721F731F741F751F722B000E732377
:1025D8007423752372C06CF073C06DF074C06EF014
:1025E80075C06FF0120077C06CF078C06DF079C0DC
:1025F8006EF07AC06FF01200000E00019F6F000E9F
:102608000001A06F440E0001716F7C0E0001726F13
:10261800A1EC26F0FED0CAD09F0E0001716F7D0E8E
:102628000001726FA1EC26F0000E90EC10F07CC057
:102638001FF17DC020F17EC021F17FC022F1D7D0EB
:10264800EB0E0001716F7A0E0001726FA1EC26F09B
:10265800070E90EC10F07CC023F17DC024F17EC001
:1026680025F17FC026F1C3D0CA0E0001716F7A0E22
:102678000001726FA1EC26F0070E90EC10F07CC000
:1026880027F17DC028F17EC029F17FC02AF1AFD0A3
:10269800900E0001716F760E0001726FA1EC26F0AA
:1026A800000E90EC10F07CC02BF17DC02CF17EC0A8
:1026B8002DF17FC02EF19BD0FC0E0001716F790EB9
:1026C8000001726FA1EC26F0010E90EC10F07CC0B6
:1026D8002FF17DC030F18BD0430E0001716F7A0E5F
:1026E8000001726FA1EC26F0000E90EC10F00001D2
:1026F8007C5100017D1100017E1100017F11D8B4C9
:1027080002D0010E01D0000E0101316F70D0490EC8
:102718000001716F7B0E0001726FA1EC26F0000EB4
:1027280090EC10F000017C5100017D1100017E1138
:1027380000017F11D8B402D0010E01D0000E0101B2
:10274800326F55D08F0E0001716F790E0001726FD4
:10275800A1EC26F0000E90EC10F07CC033F17DC0A7
:1027680034F145D05D0E0001716F7C0E0001726F6F
:10277800A1EC26F0000E90EC10F07CC035F17DC085
:1027880036F17EC037F17FC038F131D0540E0001E8
:10279800716F780E0001726FA1EC26F0000E90ECBC
:1027A80010F000017C510101396F21D00001A051C6
:1027B800000AD8B431D7010AD8B442D7030AD8B42A
:1027C80053D7010AD8B464D7070AD8B475D7010A11
:1027D800D8B482D7030AD8B49AD7010AD8B4B2D7E2
:1027E8000F0AD8B4BFD7010AD8B4D0D700D08D0EFD
:1027F8000001716F760E0001726FA1EC26F00001E6
:10280800A02B090E0001A06504D0010E00019F6FE6
:1028180000D000019F510001D8B4C8D7A80E00010C
:10282800716F780E0001726FA1EC26F012000001A2
:102838006C6F9DD00C0E0001636F7F0E0001646FFA
:102848000C0E0001656F44EC1EF01200190E000119
:10285800636F7F0E0001646F0C0E0001656F44EC1E
:102868001EF01200260E0001636F7F0E0001646FD8
:102878000C0E0001656F44EC1EF01200330E0001CF
:10288800636F7F0E0001646F0C0E0001656F44ECEE
:102898001EF01200400E0001636F7F0E0001646F8E
:1028A8000C0E0001656F44EC1EF012004D0E000185
:1028B800636F7F0E0001646F0C0E0001656F44ECBE
:1028C8001EF012005A0E0001636F7F0E0001646F44
:1028D8000C0E0001656F44EC1EF01200670E00013B
:1028E800636F7F0E0001646F0C0E0001656F44EC8E
:1028F8001EF01200740E0001636F7F0E0001646FFA
:102908000C0E0001656F44EC1EF01200D40E00019D
:10291800636F7E0E0001646F0D0E0001656F44EC5D
:102928001EF01200E20E0001636F7E0E0001646F5C
:102938000D0E0001656F44EC1EF01200F00E000150
:10294800636F7E0E0001646F0D0E0001656F44EC2D
:102958001EF01200FE0E0001636F7E0E0001646F10
:102968000D0E0001656F44EC1EF012002AD0000124
:102978006C51010AD8B45ED7030AD8B467D7010AE4
:10298800D8B470D7070AD8B479D7010AD8B482D78F
:10299800030AD8B48BD7010AD8B494D70F0AD8B48D
:1029A8009DD7010AD8B4A6D7030AD8B4AFD7010A6D
:1029B800D8B4B8D7070AD8B4C1D7010AD8B4CAD787
:1029C80000D0000E120012000001676F9CD00C0EA0
:1029D8000001616F7F0E0001626F0C0E0001636FD2
:1029E80041EC28F01200190E0001616F7F0E000102
:1029F800626F0C0E0001636F41EC28F01200260E86
:102A08000001616F7F0E0001626F0C0E0001636FA1
:102A180041EC28F01200330E0001616F7F0E0001B7
:102A2800626F0C0E0001636F41EC28F01200400E3B
:102A38000001616F7F0E0001626F0C0E0001636F71
:102A480041EC28F012004D0E0001616F7F0E00016D
:102A5800626F0C0E0001636F41EC28F012005A0EF1
:102A68000001616F7F0E0001626F0C0E0001636F41
:102A780041EC28F01200670E0001616F7F0E000123
:102A8800626F0C0E0001636F41EC28F01200740EA7
:102A98000001616F7F0E0001626F0C0E0001636F11
:102AA80041EC28F01200D40E0001616F7E0E000187
:102AB800626F0D0E0001636F41EC28F01200E20E08
:102AC8000001616F7E0E0001626F0D0E0001636FE1
:102AD80041EC28F01200F00E0001616F7E0E00013B
:102AE800626F0D0E0001636F41EC28F01200FE0EBC
:102AF8000001616F7E0E0001626F0D0E0001636FB1
:102B080041EC28F0120000016751010AD8B45FD7E0
:102B1800030AD8B468D7010AD8B471D7070AD8B459
:102B28007AD7010AD8B483D7030AD8B48CD7010A54
:102B3800D8B495D70F0AD8B49ED7010AD8B4A7D766
:102B4800030AD8B4B0D7010AD8B4B9D7070AD8B499
:102B5800C2D7010AD8A41200CAD71200A39401014F
:102B68006A5101016B11D8B413D06AC1D9FF6BC186
:102B7800DAFF0101DFAE04D00001676B672B02D0DA
:102B88000001676B000167510001686F696B06D02F
:102B9800000E0001696F000E686F00D000016851D7
:102BA80000016911D8B402D0A3841200030E46189C
:102BB800D8A402D0000E466E4650D8A402D0A384F2
:102BC8001200020E4618D8A416D0010E0001606F3C
:102BD800000E0001616F000E0001626F000E00011F
:102BE800636F020EB2EC1FF060C06AF161C06BF156
:102BF800030E466E79D04604D8A476D0400E000164
:102C0800EB6504D0400E00016B6F03D0EBC06BF096
:102C180000D000016B5100080001EB250001EB6FAB
:102C2800000E0101626F050E0101636F6BC06AF04F
:102C38000001E951D8B415D02FD013D065C1D9FF00
:102C480066C1DAFF62C1E1FF63C1E2FFDFCFE7FFE0
:102C58000101624B632B0101654B662B00016A077A
:102C680000D000016A510001D8B41DD0E7D71BD0AD
:102C780013D065C1D9FF66C1DAFF62C1E1FF63C144
:102C8800E2FFDFCFE7FF0101624B632B0101654BD8
:102C9800662B00016A0700D000016A510001D8B410
:102CA80002D0E7D700D00001EB51D8A40AD0400EDB
:102CB80000016B19D8A402D0020E01D0030E466E93
:102CC80000D0010E0001606F000E0001616F050E5B
:102CD8000001626F6BC063F0020EB2EC1FF060C0BF
:102CE8006AF161C06BF100D0A38412008D0E00015F
:102CF800716F760E0001726FA1EC26F08D0E000147
:102D0800716F760E0001726FA1EC26F0810E000142
:102D1800716F7F0E0001726FA1EC26F06A0E000140
:102D2800716F790E0001726FA1EC26F0D00E0001D0
:102D3800716F780E0001726FA1EC26F0A90E0001E8
:102D4800716F7A0E0001726FA1EC26F0C00E0001BF
:102D5800716F7B0E0001726FA1EC26F0110E00015D
:102D6800716F7C0E0001726FA1EC26F0660E0001F7
:102D7800716F7A0E0001726FA1EC26F0290E000126
:102D8800716F780E0001726FA1EC26F05F0E0001E2
:102D9800716F760E0001726FA1EC26F0760E0001BD
:102DA800716F7C0E0001726FA1EC26F02B0E0001F2
:102DB800716F7C0E0001726FA1EC26F08E0E00017F
:102DC800716F7C0E0001726FA1EC26F0A60E000157
:102DD800716F7C0E0001726FA1EC26F0D80E000115
:102DE800716F790E0001726FA1EC26F0880E000158
:102DF800716F7A0E0001726FA1EC26F0FE0E0001D1
:102E0800716F770E0001726FA1EC26F0A60E00011B
:102E1800716F770E0001726FA1EC26F0490E000168
:102E2800716F7D0E0001726FA1EC26F0BE0E0001DD
:102E3800716F7C0E0001726FA1EC26F08D0E0001FF
:102E4800716F760E0001726FA1EC26F0120000017E
:102E5800D16F21EE1FF000EE64F01A0EDBCFEBFF0E
:102E6800E806FCE2E7EC05F021EE9FF010EEA1F099
:102E78002F0EDBCFE3FFE806FCE234D0310E000171
:102E8800CE6F320E0001CE6F330E0001CE6F340EBE
:102E98000001CE6F350E0001CE6F360E0001CE6FE9
:102EA800370E0001CE6F380E0001CE6F390E0001CB
:102EB800CE6F310E0001CE6F300E0001CF6F310E94
:102EC8000001CE6F310E0001CF6F310E0001CE6FC1
:102ED800320E0001CF6F310E0001CE6F330E0001AC
:102EE800CF6F2AD00001D151010AD8B4C7D7030A3D
:102EF800D8B4C7D7010AD8B4C7D7070AD8B4C7D730
:102F0800010AD8B4C7D7030AD8B4C7D7010AD8B4B6
:102F1800C7D70F0AD8B4C7D7010AD8B4C7D7030A86
:102F2800D8B4C7D7010AD8B4CAD7070AD8B4CDD7F6
:102F3800010AD8B4D0D700D0000E0001D26F0C0E11
:102F48000001D36F2A0E0001D36501D019D000010A
:102F5800D251010D000EF324D96E010EF420DA6E61
:102F68000001D351010DA10EF324E16E000EF420EF
:102F7800E26EDFCFE7FF0001D22B0001D32BE2D7AF
:102F8800A10E0001636F000E0001646F2E0E000198
:102F9800656F44EC1EF00009D8A402D0000E1200A0
:102FA800010E12001200A394000E676E000E656EEB
:102FB800000E6A6E6B0E0001606F0F0E0001616FEC
:102FC800000E0001636F000E626F000E0001656F56
:102FD800020E646F6EEC29F0160E626E9F0E666E1E
:102FE8007B0E646E000E0001686F10D013D00001D4
:102FF8006851040D000EF324D96E040EF420DA6E25
:10300800DE6ADE6ADE6ADD6A0001682B0B0E0001EB
:103018006865EDD7608C000E636E6098609C0AD07E
:103028006596000E536E000E306E000E326E000E66
:10303800316E00D065B6F4D7010E0001E56F010EC0
:103048000001E66F000E0001E36F000E0001E46F5F
:10305800000E426E000E0001686F020E00016865E6
:1030680001D033D000016851020D350EF324D96E1A
:10307800000EF420DA6E000EDE6E000EDD6E00012A
:103088006851020D510EF324D96E010EF420DA6E48
:10309800000EDE6E000EDD6E00016851010DDD0EC2
:1030A800F324D96E000EF420DA6E000EDF6E0001F4
:1030B8006851010D5F0EF324D96E010EF420DA6E0B
:1030C800000EDF6E0001682BC8D7080E356E040E9F
:1030D800366E160E6A6E040E0401036F300E026F10
:1030E800080E0401016F040E0401006F0401008F33
:1030F800000E566E000E446E12004404D8B460BA36
:1031080007D0000E656E64806488020E446E00D09D
:1031180065B464A404D06594EDEC29F000D060A2F5
:1031280002D0A494120065B064A007D0C7EC19F0CF
:10313800A384040E446E659000D065B864A804D0DA
:10314800A6EC2AF0659800D065AC1DD064AC0FD011
:10315800000E0E6E730E0D6E000E0F6E000E106ECA
:10316800000E126E010E116E61EC26F000D0659C07
:103178004550D8B402D0450600D04550D8A403D055
:1031880067EC21F000D065BA64AA03D091EC28F06E
:1031980000D065B264A210D07F0E0E6E0D68000ECE
:1031A8000F6E000E106E000E126E010E116E61ECA5
:1031B80026F0000E676E00D0040E446002D0A4947E
:1031C800120064A63FD0000E1E6E030E1E6401D0CE
:1031D80039D065A637D061CF57F05730E832E8329A
:1031E8000F0B486E659657B40AD04850010D5F0E14
:1031F800F324D96E010EF420DA6E010109D048508B
:10320800010DDD0EF324D96E000EF420DA6E0001F4
:10321800DF7000D04850D8A403D0FFEC20F010D0C5
:10322800000E0E6E720E0D6E570E0F6E000E106EA3
:10323800000E126E000E116E61EC26F001D002D065
:103248001E2AC3D7A4941200000E0001666F92D004
:1032580060C0D9FF61C0DAFFDF500001636F000171
:103268006651020DCF0EF324D96E010EF420DA6EEA
:10327800DECFF6FFDDCFF7FF0800F5500001631938
:10328800D8A475D0000120EE01F06051D926615113
:10329800DA22DF500001636F00016651020DCF0E84
:1032A800F324D96E010EF420DA6EDECF64F0DDCFA0
:1032B80065F0010E00016427000E652364C0F6FF67
:1032C80065C0F7FF0800F55000016319D8A44FD076
:1032D800000120EE02F06051D9266151DA22DF5058
:1032E8000001636F00016651020DCF0EF324D96E01
:1032F800010EF420DA6EDECF64F0DDCF65F0020E49
:1033080000016427000E652364C0F6FF65C0F7FF5F
:103318000800F55000016319D8A429D0000120EE57
:1033280003F06051D9266151DA22DF500001636F42
:1033380000016651020DCF0EF324D96E010EF42060
:10334800DA6EDECF64F0DDCF65F0030E000164278E
:10335800000E652364C0F6FF65C0F7FF0800F5504E
:1033680000016319D8A403D00001665112000001BE
:10337800662B00D000016651800A6D0FD8A068D76F
:10338800FF0E12001200A394000E676E000E656E09
:10339800000E6A6E6B0E016E0F0E026E000E046E4A
:1033A800000E036E000E066E020E056E79EC2AF012
:1033B800160E626E9F0E666E7B0E646E000E096EB0
:1033C8000ED010D00950040D000EF324D96E040E4F
:1033D800F420DA6EDE6ADE6ADE6ADD6A092A0B0E1E
:1033E8000964F0D7608C000E636E6098609C0AD008
:1033F8006596000E536E000E306E000E326E000E93
:10340800316E00D065B6F4D7010E0001E56F010EEC
:103418000001E66F000E0001E36F000E0001E46F8B
:10342800000E426E000E096E020E096401D02ED005
:103438000950020D350EF324D96E000EF420DA6E11
:10344800000EDE6E000EDD6E0950020D510EF324E3
:10345800D96E010EF420DA6E000EDE6E000EDD6EFF
:103468000950010DDD0EF324D96E000EF420DA6E3A
:10347800000EDF6E0950010D5F0EF324D96E010EA8
:10348800F420DA6E000EDF6E092ACED7080E356EEC
:10349800040E366E160E6A6E040E0401036F300EAB
:1034A800026F080E0401016F040E0401006F04018D
:1034B800008F000E566E000E446E1200000E0001C2
:1034C800696F000167AF0DD00001671F661F651F98
:1034D800646D000E652366236723010E0001696F82
:1034E80000D0000163AF0DD00001631F621F611F90
:1034F800606D000E612362236323010E0001691BC6
:1035080000D0000E00016A6F000E6B6F000E6C6F2A
:10351800000E6D6F00016451000165110001661114
:1035280000016711D8B447D0010E0001686F09D0B7
:103538000001D89064376537663767370001682B14
:1035480000D0000167BF02D0F3D700D00001D890A7
:103558006A376B376C376D37000164510001605D65
:10356800000165510001615900016651000162596D
:103578000001675100016359D8A013D000016451BC
:103588000001605F000165510001615B0001665147
:103598000001625B000167510001635B00016A8101
:1035A80000D00001D8906733663365336433000177
:1035B800682FCCD700D0000169510001D8B40AD0D7
:1035C80000016D1F6C1F6B1F6A6D000E6B236C234F
:1035D8006D2300D06AC060F06BC061F06CC062F00F
:1035E8006DC063F012001200800E04013019D8A4D7
:1035F8001200C00E536E7CD02E0E506E750E516E9A
:10360800000E556E120E546E120004013251D8A4E9
:103618003ED004013251020D630EF324F66E740E8F
:10362800F420F76E0900F5CF50F00A00F5CF51F0FD
:10363800020E5024016E000E5120026E01C0F6FFEA
:1036480002C0F7FFF86A070EF76403D00800F550C8
:1036580005D0F6CFE9FFF7CFEAFFEF50546E030E1F
:103668005024016E000E5120026E01C0F6FF02C008
:10367800F7FFF86A070EF76403D00800F55005D085
:10368800F6CFE9FFF7CFEAFFEF50556E1200000EB4
:10369800536E1200030E0401326124D0040132512A
:1036A800020D550EF324F66E740EF420F76E090021
:1036B800F5CF50F00A00F5CF51F050C0F6FF51C0D9
:1036C800F7FFF86A070EF76403D00800F55005D035
:1036D800F6CFE9FFF7CFEAFFEF50016E0150546EC5
:1036E800556A1200000E536E1200000E536E12003F
:1036F80004013351010AD8B47FD7030AD8B485D757
:10370800010AD8B4C7D7F1D7120012006FC075F0FC
:1037180070C076F071C077F072C078F000D075C0D4
:1037280060F076C061F077C062F078C063F073C073
:1037380064F074C065F00001000E65BFFF0E666F8F
:10374800676F34EC22F060C075F061C076F062C03B
:1037580077F063C078F000016D4B6E2B0001755156
:10376800000176110001771100017811D8A4D7D78C
:103778006DC0D9FF6EC0DAFF000EDF6E00016D0765
:10378800D8A06E0700D06FC060F070C061F071C043
:1037980062F072C063F073C064F074C065F0000139
:1037A800000E65BFFF0E666F676F68EC24F00001BE
:1037B80060510001796F6FC060F070C061F071C036
:1037C80062F072C063F073C064F074C065F0000109
:1037D800000E65BFFF0E666F676F34EC22F060C0A5
:1037E8006FF061C070F062C071F063C072F0090ED2
:1037F8000001796503D0070E00017927300E00011A
:1038080079276DC0D9FF6EC0DAFF79C0DFFF0001EC
:103818006D07D8A06E0700016F51000170110001FB
:10382800711100017211D8A4AED71200000E000168
:103838006D6F000E6E6F000E6F6F000E706F21C1FE
:1038480074F120C175F11FC176F126C177F125C148
:1038580078F124C179F123C17AF12AC17BF129C118
:103868007CF128C17DF127C17EF12EC17FF12DC1E8
:1038780080F12CC181F12BC182F10101305101018C
:10388800836F2FC184F131C185F132C186F139C10D
:1038980087F1010134510101886F33C189F137C1C2
:1038A8008AF136C18BF135C18CF1F29EF29C000E83
:1038B8000001716F15D000017151010D740EF324D0
:1038C800D96E010EF420DA6EDF500001606F00013E
:1038D800715100016D2514EC29F00001712B00D005
:1038E80058500001715DD8A0E6D7F28EF28C000E18
:1038F80000016C6F000E6B6F740E0001606F010E9B
:103908000001616F58C062F00001636B46EC0FF074
:1039180060C06BF061C06CF0F29EF29C00016C51CB
:103928000001606F585000016D2514EC29F06BC040
:1039380060F0585000016D2500016A6F00016A2986
:1039480014EC29F0F28EF28C1200585000016A6FC4
:103958006B6B030E00016A27000E6B236AC070F0C0
:103968006BC071F00001000E71BFFF0E726F736FB4
:10397800000E00016F6F000E6E6F000E0001756F74
:10398800000E746F000175BF0AD0000175511BE16C
:10399800030E0001745DD8B016D001D014D0740E97
:1039A80000017425D96E010E00017521DA6E00013F
:1039B8007451000170250EEC2BF0DF6E0001744B82
:1039C800752BE0D700D000017051030F0EEC2BF0DF
:1039D80000016A6F00016A5100016C6F6B6B000196
:1039E8007051040F0EEC2BF000016D6F00016D514A
:1039F80000016B1100016E6F00016C5100016F6FC7
:103A0800740E0001606F010E0001616F000E00016D
:103A1800636F030E626F46EC0FF000016E510001F8
:103A2800601906E100016F5100016119D8B402D094
:103A3800000E120001017451D8B402D0010E01D059
:103A4800000E0001EE6F01017551D8B402D0010ECD
:103A580001D0000E0001E86F76C1E7F0010E1200F8
:103A6800120020EE01F03B50D9263C50DA22DF50FC
:103A7800026E0250315C000E3258D8B003D031C00B
:103A880002F000D00250315E000E325A000E016E74
:103A980012D00150010D380EF324D96E040EF42013
:103AA800DA6E2DC0E1FF2EC0E2FFDFCFE7FF2D4A1F
:103AB8002E2A012A00D00250015CD8A0EAD7315042
:103AC8003210D8B432D020EE01F03D50D9263E5005
:103AD800DA22080EDF6E20EE02F03D50D9263E5065
:103AE800DA22380EDE6E040EDD6E3BC0D9FF3CC014
:103AF800DAFFDFBC0DD03DC0D9FF3EC0DAFF480E6B
:103B0800DF6E3DC0D9FF3EC0DAFF000EDB8E12002B
:103B18003DC0D9FF3EC0DAFF080EDF6E3DC0D9FFB9
:103B28003EC0DAFF000EDB8E120020EE01F03D50A1
:103B3800D9263E50DA22080EDF6E20EE02F03D5004
:103B4800D9263E50DA22300EDE6E040EDD6E3DC000
:103B5800D9FF3EC0DAFF040EDF6E3DC0D9FF3EC07C
:103B6800DAFF000EDB8E309E4350D8A4120067ECBB
:103B780021F012001200609853BE3DD030AE10D034
:103B8800020E476E0001E451D8A403D0BAEC24F029
:103B980000D0000E0001E66F000E0001E56F120074
:103BA80020EE01F03D50D9263E50DA22080EDF6E95
:103BB80020EE02F03D50D9263E50DA22300EDE6E5D
:103BC800040EDD6E3DC0D9FF3EC0DAFF0C0EDF6E7D
:103BD8003DC0D9FF3EC0DAFF000EDB8E35C0D9FFED
:103BE80036C0DAFF040EDF6E35C0D9FF36C0DAFF03
:103BF800000EDB8E1200040130AF15D0010E476EA7
:103C08000001E351D8A403D0BAEC24F000D0000E90
:103C18000001E66F000E0001E56F4350D8A41200C2
:103C280067EC21F01200020E476E20EE01F03D50C5
:103C3800D9263E50DA22080EDF6E20EE02F03D5003
:103C4800D9263E50DA22300EDE6E040EDD6E3DC0FF
:103C5800D9FF3EC0DAFF040EDF6E3DC0D9FF3EC07B
:103C6800DAFF000EDB8E000E0001E66F000E000189
:103C7800E56F4350D8A4120067EC21F0120012003F
:103C8800000E0001696F000E0001686F03D0D4ECCC
:103C980028F000D04950D8B462D0F9D760D0495044
:103CA800D8B419D0D4EC28F000016A6F4F0E000187
:103CB8006A19D8A451D04950D8B44ED0D4EC28F0C1
:103CC80000016A6F4B0E00016A19D8A445D0010E95
:103CD8000001696F41D0000E00016B6F29D000010F
:103CE8006B51010D63C066F064C067F0F3500001CA
:103CF8006627F4500001672366C0F6FF67C0F7FF28
:103D0800F86A070EF76403D00800F55005D0F6CF1F
:103D1800E9FFF7CFEAFFEF50B3EC28F0000E0001FF
:103D2800616F010E606F4BEC2AF000016B2B00D025
:103D38000001655100016B5DD8A0D1D70D0EB3EC21
:103D480028F00A0EB3EC28F0000E0001616F010E96
:103D5800606F4BEC2AF000D00001682B00D0000106
:103D680069510001D8A408D04A0E0001686597D7A8
:103D780003D0D4EC28F000D04950D8A4FAD70001D9
:103D8800695112001200000E0001EA6F0001E051B3
:103D98000001E111D8B413D0E0C0D9FFE1C0DAFFC7
:103DA8000001DFAE04D000016A6B6A2B02D000016B
:103DB8006A6B00016A5100016B6F6C6B06D0000ED4
:103DC80000016C6F000E6B6F00D000016B51000199
:103DD8006C11D8A44ED0000120EE01F0E051D92694
:103DE800E151DA2200016951DE5CD8B00BD0000144
:103DF80020EE01F0E051D926E151DA22DF5000012E
:103E0800696F00D0000E0001EA6F19D00001EA5175
:103E1800010D400EF324D96E050EF420DA6E000170
:103E2800EA51010DF35000016725E16EF4500001DD
:103E38006821E26EDFCFE7FF0001EA2B00D0000126
:103E480069510001EA5DD8A0E1D7000E0001606F5A
:103E5800400E0001616F050E0001626F400E000107
:103E6800636F020EB2EC1FF060C0E0F061C0E1F0D9
:103E780000D00001EA511200120004013039E83282
:103E8800030B0009D8A4120046D0120044D0538E68
:103E9800080E446E1200F8EC1AF0120021EC20F023
:103EA8001200560E506E000E516E5380010E546E65
:103EB800538E1200B3EC23F0120000D0F7EC0DF093
:103EC800120004013451010D9D0EF324506E010EB1
:103ED800F420516E5380010E546E538E1200538E8F
:103EE80004013451010D9D0EF324D96E010EF42006
:103EF800DA6E32C4DFFF1200000E0E6E020E0D6E77
:103F0800000E0F6E000E106E000E126E000E116E77
:103F180061EC26F0120004013151000AD8B4CAD766
:103F2800010AD8B4CBD7020AD8B4C8D7060AD8B47D
:103F3800AED7030AD8B4AFD7010AD8B4DDD70F0A71
:103F4800D8B4AFD7010AD8B4A9D7030AD8B4B9D717
:103F5800010AD8B4C4D7070A120012000001646F1E
:103F6800000160510001D8B408D000016451020D6D
:103F7800350EF324D96E000E07D000016451020DEE
:103F8800510EF324D96E010EF420DA6EDECF65F0FF
:103F9800DDCF66F000D00001655100016611D8A49C
:103FA80007D0000E0001606F000E0001616F120063
:103FB800000120EE02F06551D9266651DA2261C06F
:103FC800DEFF62C0DDFF000120EE01F06551D92659
:103FD8006651DA2263C0DFFF65C0D9FF66C0DAFF29
:103FE800400EDF1665C0D9FF66C0DAFF000EDB861B
:103FF80065C0D9FF66C0DAFF000EDB8E0001605194
:104008000001D8B408D000016451020D350EF32424
:10401800D96E000E07D000016451020D510EF32431
:10402800D96E010EF420DA6E040EDF1A00D065C0D6
:1040380060F066C061F012001200538E6B0E016EC4
:104048000F0E026E000E046E000E036E000E066E5A
:10405800020E056E79EC2AF0000E016E040E026E57
:10406800000E046E000E036E000E066E300E056E16
:1040780079EC2AF0608C000E156E020E156401D0E2
:1040880016D01550010DDD0EF324D96E000EF42064
:10409800DA6E000EDF6E1550010D5F0EF324D96E37
:1040A800010EF420DA6E000EDF6E152AE6D79D0E9B
:1040B800016E010E026E000E046E000E036E000EFD
:1040C800066E020E056E79EC2AF0609C080E356EBD
:1040D800040E366E000E3B6E040E3C6E3BC03DF087
:1040E8003CC03EF032C456F05650D8A403D0100E4F
:1040F800446E1200000E0E6E010E0D6E560E0F6EFF
:10410800000E106E000E126E010E116E61EC26F09C
:10411800200E446E12001200080E016E555011E177
:10412800080E545CD8B00DD054C001F04F50D8A43C
:1041380002D0010E04D04F04D8A403D0020E4F6E53
:1041480000D00150545E000E555A20EE01F0355053
:10415800D9263650DA2201C0DFFF380E01016E6F12
:10416800040E01016F6F53A01ED03FD01CD050C069
:10417800F6FF51C0F7FFF86A6EC1D9FF6FC1DAFFC9
:10418800070EF76403D00800F55005D0F6CFE9FF15
:10419800F7CFEAFFEF50DF6E504A512A01016E4B0C
:1041A8006F2B010600D00150D8B41200E0D71200DE
:1041B8001CD050C0F6FF51C0F7FFF86A6EC1D9FF96
:1041C8006FC1DAFF070EF76403D00800F55005D079
:1041D800F6CFE9FFF7CFEAFFEF50DF6E504A512ADA
:1041E80001016E4B6F2B010600D00150D8B41200AC
:1041F800E0D7120012002D0E456E57C01BF0FD0EC1
:104208001B16D8A457D057C01BF0D8901B323F0EAE
:104218001B161B50040D000EF3243B6E040EF420F5
:104228003C6E3BC03DF03CC03EF0040E3D1A3BC026
:10423800D9FF3CC0DAFFDF30E8320F0B0D0AD8A4F3
:1042480036D0000E1D6E070E1D6401D023D020EE5F
:1042580002F03B50D9263C50DA22DECF1BF0DDCFEE
:104268001CF01BC0D9FF1CC0DAFF1D50010D300E19
:10427800F324E16E040EF420E26EDFCFE7FF20EEB8
:1042880002F03B50D9263C50DA22DE2A000EDD220D
:104298001D2AD9D720EE02F03B50D9263C50DA220D
:1042A800300EDE6E040EDD6E9AEC25F0120085EC01
:1042B80027F012005750FD0B040AD8A41200F7EC9F
:1042C80022F0120012000001E551D8A41200010EDC
:1042D8000001E56F0001E651D8A41200010E0001AB
:1042E800E66F020E4718D8A415D020EE01F035501D
:1042F800D9263650DA22000EDF6E35C0D9FF36C017
:10430800DAFF480EDF6E35C0D9FF36C0DAFF000E7F
:10431800DB8E12004704D8A41200000E0001E26FE1
:1043280020EE01F03B50D9263C50DA22080EDF6E11
:1043380020EE02F03B50D9263C50DA22300EDE6ED9
:10434800040EDD6E3BC0D9FF3CC0DAFF040EDF6E01
:104358003BC0D9FF3CC0DAFF000EDB8E010E000126
:10436800E26F20EE01F03D50D9263E50DA22080EC9
:10437800DF6E20EE02F03D50D9263E50DA22300E94
:10438800DE6E040EDD6E3DC0D9FF3EC0DAFF800E42
:10439800DF6E12001200585000016A6F6B6B030E3B
:1043A80000016A27000E6B236AC06EF06BC06FF0C5
:1043B8000001000E6FBFFF0E706F716FEEC074F1D9
:1043C800E8C075F1E7C076F1F29EF29C000E00019C
:1043D800726F15D018D000017251010D740EF324BC
:1043E800D96E010EF420DA6EDF500001606F000113
:1043F800725100016E2514EC29F00001722B020E97
:1044080000017265E8D7F28EF28C000E00016D6F24
:10441800000E6C6F740E0001606F010E0001616F79
:10442800000E0001636F030E626F46EC0FF060C070
:104438006CF061C06DF0F29EF29C00016D510001BC
:10444800606F00016E51030F14EC29F06CC060F02E
:1044580000016E51040F14EC29F0F28EF28C120058
:10446800000E0001686F000E696F000E6A6F000E83
:104478006B6F0001645100016511000166110001B4
:104488006711D8B447D0010E00016C6F09D0000144
:10449800D890643765376637673700016C2B00D0D2
:1044A800000167BF02D0F3D700D00001D890683769
:1044B80069376A376B37000164510001605D00019C
:1044C80065510001615900016651000162590001FE
:1044D800675100016359D8A013D00001645100014D
:1044E800605F000165510001615B000166510001D8
:1044F800625B000167510001635B0001688100D0C5
:104508000001D890673366336533643300016C2F3C
:10451800CCD700D068C060F069C061F06AC062F0B2
:104528006BC063F01200056E0150D8B407D0055077
:10453800020D350EF324D96E000E06D00550020D7B
:10454800510EF324D96E010EF420DA6EDECF06F098
:10455800DDCF07F000D006500710D8A405D0000E14
:10456800016E000E026E120020EE02F00650D926EF
:104578000750DA2202C0DEFF03C0DDFF20EE01F0A3
:104588000650D9260750DA2204C0DFFF06C0D9FF3B
:1045980007C0DAFF400EDF1606C0D9FF07C0DAFFF2
:1045A800000EDB8606C0D9FF07C0DAFF000EDB8EDF
:1045B8000150D8B407D00550020D350EF324D96E3A
:1045C800000E06D00550020D510EF324D96E010ECF
:1045D800F420DA6E040EDF1A00D006C001F007C01E
:1045E80002F01200120035C0D9FF36C0DAFF000E03
:1045F800DFBC010E026E040E351A080E4418D8A44A
:104608000CD0040132517F0B636E6350D8B402D0D2
:10461800100E01D0040E446E00D04704D8A43AD03E
:1046280020EE02F03550D9263650DA22380EDE6EEA
:10463800040EDD6E90EC20F0020E4F18D8A40DD0B9
:1046480035C0D9FF36C0DAFF040EDF6E35C0D9FF9A
:1046580036C0DAFF000EDB8E12000250D8A40DD04F
:1046680035C0D9FF36C0DAFF480EDF6E35C0D9FF36
:1046780036C0DAFF000EDB8E120035C0D9FF36C017
:10468800DAFF080EDF6E35C0D9FF36C0DAFF000E3C
:10469800DB8E120030AE02D0309E00D0000E476E86
:1046A80012001200040130511F0BE806D8A41200B2
:1046B80001D0120004013039E832030BE806D8A40F
:1046C800120001D0120004013451D8B435D00401CD
:1046D8003405D8A4120030D012002ED08E0E506EA1
:1046E800010E516E000E556E080E546E5380538E97
:1046F80012008E0E506E010E516E538E120036C48B
:1047080031F037C432F0960E2D6E010E2E6E000E6B
:10471800336E000E346E308E1200960E506E010EFF
:10472800516E000E556E070E546EC10E536E120078
:1047380032C471F1538E120004013151000AD8B409
:10474800CDD7010AD8B4D5D7210AD8B4D8D7010A09
:10475800D8B4E3D7030AD8A41200EAD71200000E8F
:104768000401386F000E0401396F3DD0538E03D019
:104778000401388100D04104D8A441D00401388311
:104788003ED0538E3CD0538E040134BF0BD004016D
:1047980034510F0B016E0150020D510EF324D96EE6
:1047A800010E0AD0040134510F0B016E0150020DA5
:1047B800350EF324D96E000EF420DA6EDECF02F047
:1047C800DDCF03F000D002C0D9FF03C0DAFFDFAEAF
:1047D80016D002C0D9FF03C0DAFFDFA410D0010E43
:1047E8000401386F0CD0040130511F0B000AD8B4F3
:1047F800BDD7010AD8B4C5D7030AD8B4C4D753AEB5
:104808001200380E506E040E516E5380020E546E14
:1048180012001200000E0001736F00016FAF09D083
:1048280000016E6D6F1FD8B06F2B010E0001736F02
:1048380000D0000171AF06D00001706D711FD8B0B3
:10484800712B00D00001705100017111D8B42BD028
:10485800010E0001726F07D00001D89070377137D0
:104868000001722B00D0000171BF02D0F5D700D033
:104878000001705100016E5D0001715100016F5916
:10488800D8A009D00001705100016E5F000171517C
:1048980000016F5B00D00001D890713370330001C4
:1048A800722FE6D700D0000173510001D8B406D0AA
:1048B80000016E6D6F1FD8B06F2B00D06EC06EF008
:1048C8006FC06FF012001200000164510001651101
:1048D8000001661100016711D8B43FD0010E000134
:1048E800686F09D00001D890643765376637673735
:1048F8000001682B00D0000167BF02D0F3D700D0B9
:10490800000164510001605D0001655100016159B9
:1049180000016651000162590001675100016359A5
:10492800D8A011D0000164510001605F00016551F9
:104938000001615B000166510001625B0001675183
:104948000001635B00D00001D8906733663365339C
:1049580064330001682FD4D700D060C060F061C014
:1049680061F062C062F063C063F01200000E0001E3
:10497800E36F000E0001E46F020E4718D8A41FD0A1
:1049880020EE01F03D50D9263E50DA22080EDF6EA7
:1049980020EE02F03D50D9263E50DA22380EDE6E67
:1049A800040EDD6E3DC0D9FF3EC0DAFF480EDF6E53
:1049B8003DC0D9FF3EC0DAFF000EDB8E1200545016
:1049C8000401365D555004013759D8B005D036C4B6
:1049D80054F037C455F000D090EC20F020EE02F0EF
:1049E8003550D9263650DA22380EDE6E040EDD6ECA
:1049F80035C0D9FF36C0DAFF480EDF6E35C0D9FFA3
:104A080036C0DAFF000EDB8E12001200066E000EB2
:104A1800076E040E086E0150026E036AD8900236C3
:104A280003360650046E056AD89004360536D890C9
:104A3800043605360250042603500522D890043661
:104A48000536D89004360536045007260550082246
:104A580007C0D9FF08C0DAFFDF9E0150D8A407D0ED
:104A68000650020D510EF324D96E010E06D00650E1
:104A7800020D350EF324D96E000EF420DA6E07C04D
:104A8800DEFF08C0DDFF00D007C0D9FF08C0DAFF8D
:104A9800DF9C20EE04F00750D9260850DA22DF8C7C
:104AA8001200000E0001706F000E6F6F0001F251CE
:104AB800D8B41200000E00016E6F000E11D0000174
:104AC8006F4B702B200E446001D00CD060B20AD01E
:104AD80001D008D06CEC28F0000E00016E6F010EBA
:104AE8006D6F00D000016D5100016E11D8A40DD07A
:104AF800000170BFE4D7880E00016F5D130E00013E
:104B08007059D8B002D0DBD700D0000170BF1200B6
:104B1800880E00016F5D130E00017059D8A01200B5
:104B2800A394000E0001F26F12001200000E4F6EE7
:104B3800000E436E000E0001E36F000E0001E46FEB
:104B4800000E0001E26F000E476E35C0D9FF36C077
:104B5800DAFF7F0EDF16040E351A35C0D9FF36C0CE
:104B6800DAFF7F0EDF16040E351A3DC0D9FF3EC0AE
:104B7800DAFF7F0EDF16000E536E000E556E000E24
:104B8800546E000E306E000E326E000E316E41EC27
:104B98001FF0000E0E6E030E0D6E000E0F6E000E4F
:104BA800106E000E126E000E116E61EC26F0BFEC56
:104BB8001DF0120002EE00F011EE00F0EE6AE55072
:104BC800E150FCE1E250FAE101EE00F09F0EEE6ADE
:104BD800E806FDE100EEDDF0160EEE6AE806FDE1FE
:104BE80000EE2DF02B0EEE6AE806FDE1280EF66EBB
:104BF800500EF76E000EF86E01EE9FF010EE5AF0B0
:104C08000900F5CFEEFFE550E150FAE1B50EF66E7A
:104C1800560EF76E000EF86E0900F5CFF3F0B40EDD
:104C2800F66E560EF76E000EF86E0900F5CF58F0C6
:104C3800000EF86E000154EF00F08A0E00017A6F42
:104C4800000E00017B6F84C07CF085C07DF086C0BB
:104C58007EF087C07FF088C080F089C081F0E6ECE4
:104C680027F0000E0001966F19D000019651010D32
:104C78008A0EF324D96E000EF420DA6E0001F0518A
:104C8800010D800EF324E16E020EF420E26EDFCFF8
:104C9800E7FF0001962B0001F02B00D00001965190
:104CA800010D8A0EF324D96E000EF420DA6EDF505F
:104CB800D8A4DBD755EC25F0120013D0120056EC1F
:104CC8002BF0120058EC2BF0120057EC2BF01200CE
:104CD8004FEC2BF0120056EC23F0120059EC2BF09D
:104CE80012000DC013F00EC014F01450000AD8B40E
:104CF80004D07F0AD8A412001AD01350010AD8B4DD
:104D0800E7D7030AD8B41200010AD8B4E4D7060AD0
:104D1800D8B41200770AD8B41200010AD8B4CFD791
:104D2800070AD8B4D2D7010AD8A41200CBD7135097
:104D3800FF0AD8A41200D2D71200000E0001756F26
:104D480022D000017551010D71C073F072C074F06A
:104D5800F35000017327F4500001742373C0F6FF69
:104D680074C0F7FF0001F051010D800EF324D96ED5
:104D7800020EF420DA6E0800F5CFDFFF0001752B74
:104D88000001F02B00D000017551010D71C073F0C6
:104D980072C074F0F35000017327F45000017423BB
:104DA80073C0F6FF74C0F7FF0800F5500009D8A4D7
:104DB800C8D755EC25F01200000E0001686F000EF0
:104DC800696F000E6A6F000E6B6F00D0000160A162
:104DD80011D00001645100016827000165510001EC
:104DE80069230001665100016A230001675100012F
:104DF8006B2300D00001D890643765376637673772
:104E08000001D8906333623361336033000160512D
:104E1800000161110001621100016311D8A4D6D705
:104E280068C060F069C061F06AC062F06BC063F08E
:104E38001200000E0101966F4B0E976F000E986FCF
:104E4800000E996F000E01019A6F000E01019B6F11
:104E5800080E01019C6F000E0001EA6F1A0E096E20
:104E6800010EF4EC28F01E0E096E020EF4EC28F088
:104E7800000E016E400E026E050E036E400E046EAB
:104E8800020E97EC22F001C0E0F002C0E1F0000E43
:104E980001016A6F000E01016B6F000E466E120071
:104EA800F29EF29C000E0001686F0AD0000E00010D
:104EB800606F0001685114EC29F00001682B00D0E4
:104EC80058500001636F646B0A0E00016327000EDF
:104ED8006423000168510001656F666B000163512E
:104EE8000001655D00016651800A0001676F0001DD
:104EF8006451800A00016759D8A0D8D7F28EF28C85
:104F08001200020E4718D8A403D035EC1DF0120089
:104F1800000E476E0001E251D8A41FD020EE01F028
:104F28003D50D9263E50DA22080EDF6E20EE02F000
:104F38003D50D9263E50DA22300EDE6E040EDD6E6C
:104F48003DC0D9FF3EC0DAFF0C0EDF6E3DC0D9FF71
:104F58003EC0DAFF000EDB8E1200000E0001E26F89
:104F680012001200F5C160F0F6C161F0F7C162F0FD
:104F7800F8C163F06D0E0001646F4E0E656FC60ECA
:104F8800666F410E676FE0EC26F060C0F5F161C016
:104F9800F6F162C0F7F163C0F8F1390E0101F527A7
:104FA800300EF623000EF723000EF823FF0E010142
:104FB800F71500016C6F7F0E0101F81500016D6F88
:104FC800120012007AC082F07BC083F000017FAF2C
:104FD80013D07AC0D9FF7BC0DAFF2D0EDF6E000137
:104FE8007A4B7B2B00017F1F7E1F7D1F7C6D000E7F
:104FF8007D237E237F2300D07AC06DF07BC06EF0C6
:105008007CC06FF07DC070F07EC071F07FC072F020
:1050180080C073F081C074F08AEC1BF0120012009B
:1050280041542B435753415049443D2220202020CE
:105038002020202020202020202020202020202068
:105048002020202020202020202020222C2020006A
:10505800C97FF67FF17F9C7FBA7FBF7FB07FEC7FEF
:10506800D37FDD7FAB7FE77FA67FA17FB57FCE7F34
:10507800C47FE27FD87F01000000000E0001666F48
:1050880018D000016651010D61C064F062C065F07E
:10509800F35000016427F4500001652364C0F6FF53
:1050A80065C0F7FF0800F550B3EC28F00001662B47
:1050B80000D0000163510001665DD8A0E2D70D0E53
:1050C800B3EC28F00A0EB3EC28F0010E120012001F
:1050D800C00E0001676F020E0001686F400E0001EC
:1050E800696FC7EC1EF00001F16F0001F051D8B4F0
:1050F80011D04650D8A40ED0800E0001606F020E69
:105108000001616FF0C062F0CCEC2AF0000E0001E3
:10511800F06F00D0B2EC15F012006AA01ED03BC0B0
:10512800D9FF3CC0DAFF800EDE18D8A415D035C0F0
:10513800D9FF36C0DAFF840EDE18D8A40DD03BC0E4
:10514800D9FF3CC0DAFF0C0EDF6E3BC0D9FF3CC074
:10515800DAFF000EDB8E00D06A90659A120000011B
:10516800606F00D04C50D8B4FDD79DB803D060C054
:10517800ADFF14D09D984D50010D400EF324D96E0B
:10518800020EF420DA6E60C0DFFF4D2A3F0E4D6438
:1051980003D0000E4D6E00D04C0600D09D88120042
:1051A800000E0001606F00D04950D8B4FDD79D9A19
:1051B8004B50010D000EF324D96E020EF420DA6E66
:1051C800DF500001606F4B2A3F0E4B6403D0000E86
:1051D8004B6E00D049069D8A0001605112001200F2
:1051E8000C6E09A406D0000E016E0C500AEC25F0D6
:1051F80000D009A206D0010E016E0C500AEC25F071
:1052080000D00C50010D6A0EF3240A6E0F0EF42024
:105218000B6E0AC0D9FF0BC0DAFF09C0DFFF12000E
:105228000001616F000EF2BE010E0001626F61C0E5
:10523800A9FF60C0A8FFA69EA69CA684F29E550E54
:10524800A76EAA0EA76EA68200D0A6B2FED7A69415
:10525800000162B102D0F29E01D0F28E120000016C
:10526800656F010E0001646F7B0E0001656105D05A
:10527800610E000165610BD000D00001655134EC6E
:105288002AF0D8B004D0000E0001646F00D064C0CA
:1052980063F000016331120012000001626F010E19
:1052A8000001616F200E00016219D8B40DD00E0EF6
:1052B8000001626105D0090E0001626105D000D0CD
:1052C800000E0001616F00D061C060F00001603124
:1052D8001200120060C066F061C067F00AD066C0B4
:1052E800D9FF67C0DAFF62C0DFFF0001664B672B9A
:1052F80000D000016407D8A0650700016429EFE128
:1053080000016529D8A4EBD712009D9A9D98480EF4
:10531800B86E900EAB6E260EAC6E670EAF6E000EBA
:10532800B06E000E4D6E000E4E6E400E4C6E000EAE
:105338004A6E000E4B6E000E496E9D8A1200445054
:10534800D8A41200000E606E000E646E160E626E17
:105358009F0E666E7B0E646ED08EA584A384F28E3B
:1053680001D0608660A6FDD7010E446E12001200BF
:10537800400E4C6013D04E50010D400EF324D96EF0
:10538800020EF420DA6EDF50AD6E4E2A3F0E4E64E8
:1053980003D0000E4E6E00D04C2A12009D981200C9
:1053A8001200010E896E800E926E000E0F015B6F67
:1053B800000E8A6EE30E936E200E0F015C6F000ED6
:1053C800856E000E8B6EC70E946E000E0F015D6F1A
:1053D8001200000E426E000E0E6E740E0D6E000E60
:1053E8000F6E000E106E000E126E000E116E61EC44
:1053F80026F06092649402D0659400D065B4FCD71E
:105408001200ABA203D0AB98AB8800D04A50010D74
:10541800000EF324D96E020EF420DA6EAECFDFFF51
:105428004A2A3F0E4A6403D0000E4A6E00D0492A29
:1054380012000001626F000E0001616F3A0E000158
:10544800626108D02F0E0001626504D0010E0001D0
:10545800616F00D061C060F000016031120012007D
:105468000001626F000E0001616F5B0E0001626156
:1054780008D0400E0001626504D0010E0001616F82
:1054880000D061C060F000016031120012000AD043
:105498009C0E0001626FD70EE82EFED7622FFCD754
:1054A80000F000D000016007D8A061070001602962
:1054B800EFE100016129D8A4EBD712000AD0100E41
:1054C8000001766F940EE82EFED7762FFCD700D019
:1054D80000D000017407D8A0750700017429EFE116
:1054E80000017529D8A4EBD7120001C007F002C04B
:1054F80008F009D007C0D9FF08C0DAFF03C0DFFFF2
:10550800074A082A00D00506D8A006060528F2E1B1
:105518000628D8A4EFD71200000161AF0ED060C0F2
:1055280062F061C063F00001621F631F624B632B6E
:1055380062C060F063C061F0120060C060F061C0DA
:1055480061F01200648465986082010E426E000E5C
:105558000E6E750E0D6E000E0F6E000E106E000EA4
:10556800126E000E116E61EC26F012000001716FD0
:105578000001F051010D800EF324D96E020EF420C3
:10558800DA6E71C0DFFF0001F02B55EC25F0120038
:10559800A3944650D8A40CD060C065F161C066F1F0
:1055A80062C0EBF0010E0001E96F010E466E00D0FB
:1055B800A38412000001606F7B0E0001606107D0B8
:1055C800600E0001606503D00001609B00D00001FF
:1055D8006051120012000001606F0001F051010DCE
:1055E800800EF324D96E020EF420DA6E60C0DFFF5D
:1055F8000001F02B1200940ED56E6D0ED76E840E3E
:10560800D66E6D0E406E840E3F6EF294F28A54ECA4
:105618002BF012000001606F60C0A9FFA69CA69E37
:10562800A68000F000F0A85012001200800E9B6EB9
:10563800700ED36E100ED26E00D0D2AEFED7900E82
:10564800B56E12004CEC2BF0D5EC29F047EC2BF0A2
:1056580089EC29F0FFEC2AF0120060C0F5F161C076
:10566800F6F10101F76BF86B12000001606F00D0D2
:105678009EA8FED760C0ADFF1200F2944050D76ECE
:105688003FC0D6FF1200D09EF1949F989F9A1200B7
:105698001AEC2BF012001DEC27F01200D59E120018
:0E56A800D58E1200120012001200120019011D
:10745400004075F67465745350530053505300B391
:10746400744E0353007500620050006F00730020D7
:10747400004E006F00640065002000520065007635
:10748400002E003000330000000000000000000067
:1074940000000000000000000000000000000000E8
:1074A40000000000000000000000000000000009CF
:1074B400024300020100C03209040000010202017B
:1074C400000524001001042402020524060001051D
:1074D40024010001070581030800020904010002D8
:1074E4000A0000000705020240000007058202406E
:1074F40000003803410020004D0069006300720061
:107504006F0063006800690070002000540065008B
:10751400630068006E006F006C006F006700790004
:10752400200049006E0063002E00120100020200D8
:107534000008D8040A000100010200010403090440
:107544000D0A206572726F723A2073657474696EE5
:107554006773206461746120637263206368656388
:107564006B206661696C65642C2073657474696E44
:107574006773206E6F74206C6F616465642E0D0AEE
:10758400000D0A206572726F723A20656570726F21
:107594006D20646174612063726320636865636B4A
:1075A400206661696C65642C2064617461206E6F6F
:1075B40074206C6F616465642E0D0A00206572721C
:1075C4006F723A20657370206D6F64756C6520630B
:1075D400616E6E6F74207365742064656661756C8A
:1075E4007420626561636F6E20636F6E6669672ED7
:1075F4000D0A000D0A20706F776572206379636C41
:1076040065206E6F646520746F2072657665727490
:1076140020746F206E6F726D616C206F7065726183
:1076240074696F6E2E0D0A000D0A207377617070F5
:10763400696E6720746F204553502070726F6772B3
:10764400616D6D696E6720706173737468726F75B4
:107654006768206D6F64652E0D0A0020667265717F
:10766400202D2073657420626561636F6E206D6FD9
:107674006465206672657120686F7070696E67203A
:10768400286379636C6963292E0D0A000D0A20654D
:107694006E74657220616C74697475646520282D3C
:1076A4002B20636D2072656C617469766520746F3C
:1076B400207365616C6576656C293A000D0A206556
:1076C40072726F723A20657370206D6F64756C65A9
:1076D4002063616E6E6F742064697361626C6520EF
:1076E400626561636F6E732E0D0A000D0A20657268
:1076F400726F723A20657370206D6F64756C6520CB
:1077040063616E6E6F74206368616E676520636881
:10771400616E6E656C2E0D0A000D0A206572726F23
:10772400723A20657370206D6F64756C65206361B7
:107734006E6E6F7420656E61626C65206265616354
:107744006F6E732E0D0A0020537562506F73204EB6
:107754006F646520526576203033202D2068747460
:10776400703A2F2F7777772E737562706F732E6F41
:1077740072670D0A000D0A206572726F723A2065F5
:10778400737020636F756C64206E6F7420736574FE
:1077940020626561636F6E20636F6E6669672E0D8C
:1077A4000A00206573706E202D20706173737468F5
:1077B400726F75676820657370206E6F726D616C8F
:1077C400206F7065726174696F6E2E0D0A002065FA
:1077D40072726F723A20657370206D6F64756C6598
:1077E4002063616E6E6F74207365742070617261C2
:1077F4006D65746572732E0D0A00206573707020B8
:107804002D20706173737468726F75676820657377
:107814007020626F6F746C6F61646572206D6F6449
:10782400652E0D0A002061637574202D2073657424
:1078340020626561636F6E206D6F646520616363B0
:1078440075726174652074696D696E672E0D0A0026
:107854000D0A20656E7465722070617468206C6F07
:10786400737320636F2D656666696369656E742042
:1078740073656C656374696F6E3A00206572726F2C
