:0400000052EF00F0CB
:10000800FACF1FF0FBCF20F0E9CF21F0EACF22F0A2
:10001800E1CF23F0E2CF24F0D9CF25F0DACF26F0D4
:10002800F3CF27F0F4CF28F0F6CF29F0F7CF2AF056
:10003800F8CF2BF0F5CF2CF0F2BAF2A403D0D7EC1E
:100048002BF00FD09DB89EA803D023EC2AF009D03E
:100058009DBA9EAA03D084EC2AF003D0CCEC18F009
:1000680000D02CC0F5FF2BC0F8FF2AC0F7FF29C02D
:10007800F6FF28C0F4FF27C0F3FF26C0DAFF25C02B
:10008800D9FF24C0E2FF23C0E1FF22C0EAFF21C05C
:10009800E9FF20C0FBFF1FC0FAFF110055EF25F054
:1000A800BCEC2BF022EC18F00AEC2AF0010E00014F
:1000B800F26F6BC1DBF16CC1DCF16DC1DDF16EC1BA
:1000C800DEF1000E0101E76F000E0101DA6F000E8C
:1000D8000101D96F000E0101DF6F000EE06F000E05
:1000E800E16F000EE26F000E0101E36F000EE46F96
:1000F800000EE56F000EE66FF28EF28C00D08A8853
:1001080000D0000E01011F6F000E206F000E216F3E
:10011800000E226F000E0101236F000E246F000EE7
:10012800256F000E266F000E0101276F000E286F45
:10013800000E296F000E2A6F000E01012B6F000EB2
:100148002C6F000E2D6F000E2E6F000E0101306F08
:10015800000E2F6F000E0101316F000E0101326F8A
:10016800000E0101396F000E0101346F000E336F6C
:10017800000E0101356F000E366F000E376F000E4E
:10018800386F00D08A8600D060EC2BF0010E000199
:10019800616FF40E606FCAEC2AF0550E0001716FA2
:1001A800760E0001726FEFEC25F0130E0001716FEF
:1001B800770E0001726FEFEC25F0C00E0001716F31
:1001C8007B0E0001726FEFEC25F0ECEC09F00001FA
:1001D800EC6F0001EC510001D8B409D00C0E0001FD
:1001E800716F790E0001726FEFEC25F009D04D0E9A
:1001F8000001716F750E0001726FEFEC25F000D0F1
:100208007CC160F07DC161F0C7EC2BF0F4EC1CF010
:100218000001EC6F0001EC510001D8B409D0E80EE0
:100228000001716F790E0001726FEFEC25F008D0B4
:100238000C0E0001716F750E0001726FEFEC25F066
:10024800300E0001716F7B0E0001726FEFEC25F02C
:10025800FB0E0001636F7F0E0001646F020E000148
:10026800656F8FEC1EF00009D8A409D07C0E000140
:10027800716F790E0001726FEFEC25F00BD0010E53
:100288000001ED6F000E0001616F140E606FCAEC83
:100298002AF000D013EC28F06CC06EF06DC06FF03F
:1002A800000E0001716F640E706F59EC24F06EC07F
:1002B80074F06FC075F0E1EC2AF00001ED51000117
:1002C800D8B499D0C40E0001636F7E0E0001646F2C
:1002D8000F0E0001656F8FEC1EF00009D8A409D03D
:1002E800470E0001716F780E0001726FEFEC25F078
:1002F80000D0F20E0001636F7A0E0001646F1E0ECB
:100308000001656F8FEC1EF00009D8A409D09A0E81
:100318000001716F770E0001726FEFEC25F000D0CD
:10032800EE0E0001636F7C0E0001646F170E000172
:10033800656F8FEC1EF00009D8A409D0880E000163
:10034800716F750E0001726FEFEC25F000D000019F
:10035800EC510001D8B419D00001E75176EC17F040
:100368000009D8A409D0410E0001716F770E000171
:10037800726FEFEC25F009D0D60E0001716F7C0E7C
:100388000001726FEFEC25F000D00001E751D8B4FE
:1003980020D0000E0001616F500E606FCAEC2AF089
:1003A8000001E75166EC14F00009D8A409D0B70E93
:1003B8000001716F760E0001726FEFEC25F019D015
:1003C8001D0E0001716F7D0E0001726FEFEC25F0BC
:1003D80010D0010E0101E36F000EE46F000EE56F0F
:1003E800000EE66F010E0001F36F010E0001E76FCA
:1003F80000D08A9600D00001EE51D8A404D00001A4
:10040800E851D8B403D0EFEC2BF003D0EDEC2BF08F
:1004180000D0010E0001EF6FC5EC16F0920E00013E
:10042800716F7F0E0001726FEFEC25F0000E000176
:10043800F16F000E0101DB6F000E0101DC6F000E91
:100448000101DD6F000E0101DE6F000E0101E76F93
:10045800000E0101DA6F00D0010180510101D8B40A
:1004680014D00001F32B0D0E0001F36504D0010E2A
:100478000001F36F00D00001F35133EC15F0000ECA
:100488000101806F00D08A9800D00001F251D8B4E1
:10049800E3D7FEEC26F00001F1510101DF6FE06BBC
:1004A800E16BE26BD3D30001F1510001D96FDA6B34
:1004B8000001D91FDA1FD94BDA2B0101DF510001E6
:1004C800D9270101E0510001DA23400E0001D925A6
:1004D800D96E020E0001DA21DA6EDF500101E86FF1
:1004E8000001F107080E0101E819D8B405D07F0E04
:1004F8000101E819D8A435D00101E7510101D8B4A8
:100508002DD00101DA510101D8A420D0FF0E00013D
:10051800D96FFF0E0001DA6F0101E7510001DB6FAF
:10052800DC6B0001D9510001DB270001DA51000121
:10053800DC23DB0E0001DB25D96E010E0001DC2176
:10054800DA6E000EDF6E0101E70728D00101DA51EB
:100558000101D8B423D00101DA0720D0010E18D048
:100568001DD00D0E0101E819D8B418D0040E0101F0
:10057800E76111D00101E751010DDB0EF324D96EBB
:10058800010EF420DA6EE8C1DFFF0101E72B000E4F
:100598000101D96F03D00101DA2B00D00D0E010142
:1005A800E819D8A43AD30101E7510101D8A4C5D26A
:1005B8000BD3C3D2C5EC16F007D34BEC13F0000EE7
:1005C8000001EF6F00D08A8600D00001E75176EC79
:1005D80017F00009D8A409D0410E0001716F770EF9
:1005E8000001726FEFEC25F009D0D60E0001716F93
:1005F8007C0E0001726FEFEC25F000D00001E7518E
:1006080066EC14F00009D8A4A8D1B70E0001716FE8
:10061800760E0001726FEFEC25F09FD19ED1D4D2F7
:1006280094EC0CF0D1D28B0E0001716F7D0E00019D
:10063800726FEFEC25F0C8D28A8600D0B40E0001A4
:10064800636F7E0E0001646F0F0E0001656F8FEC03
:100658001EF00009D8A409D0880E0001716F760E2B
:100668000001726FEFEC25F078D1060E0001716F72
:100678007D0E0001726FEFEC25F06FD16ED1A4D220
:100688008A8600D0C40E0001636F7E0E0001646F7D
:100698000F0E0001656F8FEC1EF00009D8A409D079
:1006A800E50E0001716F760E0001726FEFEC25F018
:1006B80054D1330E0001716F7D0E0001726FEFECA3
:1006C80025F04BD14AD180D2000E0001EE6F000E0A
:1006D8000001E86FEDEC2BF05F0E0001716F7D0EED
:1006E8000001726FEFEC25F019D0010E0001E86FE0
:1006F8008B0E0001716F7D0E0001726FEFEC25F01B
:100708000DD0010E0001EE6FEFEC2BF0890E000109
:10071800716F7B0E0001726FEFEC25F0000EBDD0FB
:10072800B30E0001716F7A0E0001726FEFEC25F0C5
:10073800070EDBEC10F07CC023F17DC024F17EC0F5
:1007480025F17FC026F100D08A8600D0000E000176
:10075800EF6F0001E75176EC17F00009D8A409D033
:10076800410E0001716F770E0001726FEFEC25F0FA
:10077800F4D0D60E0001716F7C0E0001726FEFECA1
:1007880025F0EBD0EAD020D2920E0001716F7A0EDC
:100798000001726FEFEC25F0070EDBEC10F07CC067
:1007A80027F17DC028F17EC029F17FC02AF100D051
:1007B8008A8600D0000E0001EF6F0001E75176EC49
:1007C80017F00009D8A409D0410E0001716F770E07
:1007D8000001726FEFEC25F0C0D0D60E0001716FEA
:1007E8007C0E0001726FEFEC25F0B7D0B6D0ECD1DB
:1007F800580E0001716F760E0001726FEFEC25F054
:10080800000EDBEC10F07CC02BF17DC02CF17EC01B
:100818002DF17FC02EF100D08A8600D0000E000195
:10082800EF6F0001E75176EC17F00009D8A409D062
:10083800410E0001716F770E0001726FEFEC25F029
:100848008CD0D60E0001716F7C0E0001726FEFEC38
:1008580025F083D082D0B8D18A8600D0B1EC27F0B9
:10086800B30E0001716F7D0E0001726FEFEC25F081
:1008780074D073D0A9D18A8600D065EC1CF01AEC2C
:1008880022F0F60E0001716F7B0E0001726FEFEC23
:1008980025F000D08A9600D0010E0001EF6F94D1A8
:1008A800750E0001716F7D0E0001726FEFEC25F07F
:1008B80000D08A86000EDBEC10F07CC0E3F17DC02E
:1008C800E4F17EC0E5F17FC0E6F10101E3510101E9
:1008D800E4110101E5110101E611D8B435D0010197
:1008E800E6510101E5110101E41125E10E0E0101B6
:1008F800E35DD8B020D0000E0001EF6F0101E35195
:1009080066EC14F00009D8A409D0B70E0001716F85
:10091800760E0001726FEFEC25F01FD01D0E00015E
:10092800716F7D0E0001726FEFEC25F0E3C1E7F007
:10093800E3C1F3F012D0E60E0001716F780E0001EA
:10094800726FEFEC25F009D0D30E0001716F7A0EAB
:100958000001726FEFEC25F000D08A9635D1F40EC5
:100968000001716F750E0001726FEFEC25F09EECBF
:1009780029F06C0E0001716F7B0E0001726FEFECB5
:1009880025F0BF0E0001716F750E0001726FEFEC5C
:1009980025F0000E0001616FC80E606FCAEC2AF0E6
:1009A800000E0001616FC80E606FCAEC2AF0000EDD
:1009B8000001616FC80E606FCAEC2AF0000E0001DA
:1009C800616FC80E606FCAEC2AF0000E0001616FFB
:1009D800C80E606FCAEC2AF04EEC2BF0E2EC2BF05C
:1009E80000D0FEEC26F00001F1510101DF6FE06B51
:1009F800E16BE26B20D00001F1510001D96FDA6B95
:100A08000001D91FDA1FD94BDA2B0101DF51000190
:100A1800D9270101E0510001DA23400E0001D92550
:100A2800D96E020E0001DA21DA6EDF50CFEC2BF01E
:100A38000001F10700D00001F151D8B407D0DBD78D
:100A480005D004EC29F0BAEC29F000D04950D8B40C
:100A5800C8D7F7D7C6D7B8D0BF0E0001716F780EC8
:100A68000001726FEFEC25F0BF0E0001716F750E7B
:100A78000001726FEFEC25F000D0FEEC26F00001CB
:100A8800F1510101DF6FE06BE16BE26B20D00001F7
:100A9800F1510001D96FDA6B0001D91FDA1FD94B68
:100AA800DA2B0101DF510001D9270101E0510001D2
:100AB800DA23400E0001D925D96E020E0001DA2191
:100AC800DA6EDF50E3EC28F00001F10700D00001F6
:100AD800F151D8B407D0DBD705D004EC29F0BAEC33
:100AE80029F000D04950D8B4C8D7F7D7C6D76CD0AA
:100AF800898083EF00F0550E0001716F760E0001BA
:100B0800726FEFEC25F0130E0001716F770E000184
:100B1800726FEFEC25F0DB0E0001716F7B0E0001A8
:100B2800726FEFEC25F050D0A30E0001716F7E0EAE
:100B38000001726FEFEC25F047D0DB0E0001606F0B
:100B4800010E0001616FE7C162F073EC19F0000A51
:100B5800D8B430D5010AD8B430D5030AD8B460D592
:100B6800010AD8B460D5070AD8B466D5010AD8B442
:100B780087D5030AD8B4A8D5010AD8B4B6D50F0AC0
:100B8800D8B4BFD5010AD8B4CBD5030AD8B4FCD59C
:100B9800010AD8B42DD6070AD8B45ED6010AD8B44B
:100BA8006AD6030AD8B47CD6010AD8B4D8D61F0AA4
:100BB800D8B452D7010AD8B49BD7030AD8B49BD764
:100BC800ED0AD8B4B1D700D0000E0101DB6F000EDA
:100BD8000101DC6F000E0101DD6F000E0101DE6F07
:100BE8000001EF51D8B409D0900E0001716F7F0E4B
:100BF8000001726FEFEC25F009D0960E0001716FBD
:100C08007F0E0001726FEFEC25F000D0000E01019D
:100C1800E76F000E0101DA6F19D0080E0101E8191B
:100C2800D8B405D07F0E0101E819D8A40AD0010173
:100C3800D9510101D8A40AD00101E851BAEC29F030
:100C480005D00101E851BAEC29F000D00001F151BA
:100C5800D8B402D428D400D452EF00F0270EF66E90
:100C6800740EF76E0800F5CF00F1280EF66E740EBC
:100C7800F76E0800F5CF01F1290EF66E740EF76EC7
:100C88000800F5CF02F166C003F165C004F164C045
:100C980005F16BC006F16AC007F169C008F168C0C8
:100CA80009F16FC00AF16EC00BF16DC00CF16CC098
:100CB8000DF17CC00EF17BC00FF17AC010F170C04D
:100CC80060F071C061F00FEC2BF0000160C092F091
:100CD800000161C093F00001000E93BFFF0E946FF6
:100CE800956F92C07FF093C080F094C081F095C05A
:100CF80082F0130E06D00001D890823381338033FE
:100D08007F33E82EF8D700017F510101116F92C09F
:100D18007FF093C080F094C081F095C082F00B0EF4
:100D280006D00001D8908233813380337F33E82E98
:100D3800F8D700017F510101126F92C07FF093C074
:100D480080F094C081F095C082F0030E06D00001B7
:100D5800D8908233813380337F33E82EF8D700016F
:100D68007F510101136FE80E00017F6F030E000130
:100D7800806F20EE74F0DECF81F0DDCF82F00001CD
:100D88007F5100018127000180510001822382C028
:100D980081F00001826B81BF8269070E0001811713
:100DA80077C083F00001D89083370001D89083374B
:100DB8000001D890833776C084F00001843BF00EA0
:100DC8008417000173AF04D00001856B852B02D016
:100DD8000001856B050E0001866F0001D8908537EC
:100DE8000001862FFAD792C087F0030E00018717FB
:100DF800060E0001886F0001D89087370001882F00
:100E0800FAD7000187510001851100018411000102
:100E18008311000181110101146F00017451E80F61
:100E28000101156F20EE78F0DECF7FF0DDCF80F086
:100E380080C07FF00001806B1F0E00017F1700014A
:100E48007E39E846E00BE00B00017F110101166FC7
:100E580078C017F1000E0001966F000E976F000E14
:100E6800986F000E996F000E0001A06F030E9F6F20
:100E78000001A0BF0AD00001A0515DE1180E0001D9
:100E88009F5DD8B058D001D056D0000E00019F25E4
:100E9800D96E010E0001A021DA6E0101DFAE34D057
:100EA800000E00019F25D96E010E0001A021DA6E07
:100EB800000E00019F25E16E010E0001A021E26EE7
:100EC800E7507F0BDF6ED8900001963500017F6FE9
:100ED800000197350001806F000198350001816F8E
:100EE800000199350001826F010E00017F11000198
:100EF800966F000180510001976F00018151000138
:100F0800986F000182510FD0D890000196350001EA
:100F1800966F000197350001976F00019835000121
:100F2800986F000199350001996F00D000019F4B1F
:100F3800A02B9ED700D096C07FF097C080F098C0B5
:100F480081F099C082F00F0E06D00001D89082334C
:100F5800813380337F33E82EF8D700017F517F0B30
:100F68000101186F96C07FF097C080F098C081F09B
:100F780099C082F0080E06D00001D89082338133E0
:100F880080337F33E82EF8D700017F517F0B0101B2
:100F9800196F000196517F0B01011A6F000E0001B5
:100FA8009B6F000E9C6F000E9D6F000E9E6F000ED3
:100FB8000001A06F030E9F6F0001A0BF0AD00001BF
:100FC800A05106E11B0E00019F5DD8B09FD001D053
:100FD8009DD0000E00019F25D96E010E0001A021B1
:100FE800DA6E0A0EDE18D8B43BD0000E00019F2539
:100FF800D96E010E0001A021DA6E0D0EDE18D8B4EC
:101008002FD0000E00019F25D96E010E0001A021EE
:10101800DA6E220EDE18D8B423D0000E00019F2508
:10102800D96E010E0001A021DA6E2B0EDE18D8B49D
:1010380017D0000E00019F25D96E010E0001A021D6
:10104800DA6EDF50D8B40CD0000E00019F25D96E9F
:10105800010E0001A021DA6E200EDE18D8A439D0C6
:10106800D89000019B3500017F6F00019C3500017D
:10107800806F00019D350001816F00019E350001E0
:10108800826F010E00017F1100019B6F00018051EA
:1010980000019C6F0001815100019D6F0001825188
:1010A80000019E6F000E00019F25D96E010E000100
:1010B800A021DA6E000E00019F25E16E010E0001ED
:1010C800A021E26EE75000017F6F00017F29DF6EEB
:1010D80012D0D89000019B3500019B6F00019C3510
:1010E80000019C6F00019D3500019D6F00019E3538
:1010F80000019E6F00D000019F4BA02B0001A0BFF4
:1011080068D70001A05102E15DD700D09BC07FF0F5
:101118009CC080F09DC081F09EC082F0040ED890E3
:1011280000017F37803781378237E82EF8D77FC0B4
:101138009BF080C09CF081C09DF082C09EF0000EA4
:1011480000019A6F000E0001A06F030E9F6F00014F
:10115800A0BFF3D001D0F1D000019F51070DF3CF0C
:101168007FF07F0E0001806F000E0001816F00018B
:101178007F2B04D0D89000018037813700017F2F62
:10118800F9D780C08EF081C08FF00001000E8FBFAC
:10119800FF0E906F916F00019F51070DF3509BC098
:1011A8007FF09CC080F09DC081F09EC082F000015D
:1011B800E82A05D0D8908233813380337F33E82EF4
:1011C800F9D700017F517F0B00019A6F0A0E0001C9
:1011D8009A19D8B419D00D0E00019A19D8B414D0A0
:1011E800220E00019A19D8B40FD02B0E00019A19BB
:1011F800D8B40AD000019A510001D8B405D0200E05
:1012080000019A19D8A494D000019A2900019A6F74
:1012180000019F51070DF3CF7FF000019A510001A3
:10122800806F816B00017F2B04D0D890000180373C
:10123800813700017F2FF9D780C082F081C083F009
:10124800000E000183BFFF0E846F856F8EC086F08D
:101258008FC087F090C088F091C089F00001861F88
:10126800871F881F891F00019B51000186150001F7
:101278008A6F00019C510001871500018B6F0001E6
:101288009D510001881500018C6F00019E510001DD
:10129800891500018D6F0001825100018A1100013A
:1012A8009B6F0001835100018B1100019C6F0001AD
:1012B800845100018C1100019D6F000185510001CE
:1012C8008D1100019E6F9FC07FF0010E0001806F9D
:1012D800000E0001816F00017F2B04D0D89000011F
:1012E8008037813700017F2FF9D780C082F081C015
:1012F80083F0000E000183BFFF0E846F856F00012D
:101308009B510001821100019B6F00019C5100015B
:10131800831100019C6F00019D510001841100019F
:101328009D6F00019E510001851100019E6F00D044
:1013380000019F07D8A0A0070AD79BC07FF09CC0D8
:1013480080F09DC081F09EC082F0160E06D000018C
:10135800D8908233813380337F33E82EF8D7000169
:101368007F517F0B01011B6F9BC07FF09CC080F0F9
:101378009DC081F09EC082F00F0E06D00001D8906B
:101388008233813380337F33E82EF8D700017F51D1
:101398007F0B01011C6F9BC07FF09CC080F09DC03B
:1013A80081F09EC082F0080E06D00001D8908233EA
:1013B800813380337F33E82EF8D700017F517F0BCC
:1013C80001011D6F00019B517F0B01011E6F12006F
:1013D800000E0001806F000E816F000E826F000EFC
:1013E800836F000E00017F6F000E7E6F000E0001FC
:1013F800856F000E846F4ED0840E00018425D96E4F
:10140800010E00018521DA6E00018451000180255A
:10141800A4EC2BF0DF6E840E00018425D96E010E3A
:1014280000018521DA6EDF5000016A6F00016A5100
:1014380001017C1B000184A110D0840E00018425C9
:10144800D96E010E00018521DA6EDF5000016A6F46
:1014580000016A5101017C1B19D0840E000184250A
:10146800D96E010E00018521DA6EDF5000016A6F26
:1014780000016A5100016C6F6B6B00016B51010137
:101488007C1B00016C5101017D1B00D00001844BC5
:10149800852B00D0585000016A6F6B6B00016A51B0
:1014A8000001845D00018551800A00016C6F000114
:1014B8006B51800A00016C59D8A09ED75850000182
:1014C8008025A4EC2BF000016A6F00016A5100012D
:1014D8006C6F6B6B58500001802500016D6F000127
:1014E8006D29A4EC2BF000016E6F00016E51000114
:1014F8006B1100017E6F00016C5100017F6F840E3B
:101508000001606F010E0001616F58C062F00001B8
:10151800636B91EC0FF000017E510001601906E148
:1015280000017F5100016119D8B402D0000E1200E9
:1015380085C16AF000016B6B6C6B6D6B6CC06DF0F4
:101548006BC06CF06AC06BF000016A6B84C16EF00E
:1015580000016F6B706B716B6FC071F06EC070F0D3
:1015680000016F6B6E6B00016A5100016E11000182
:10157800726F00016B5100016F110001736F000160
:101588006C51000170110001746F00016D51000170
:1015980071110001756F010186510001721101017D
:1015A8001F6F000173510101206F00017451010187
:1015B800216F000175510101226F89C16AF0000194
:1015C8006B6B6C6B6D6B6CC06DF06BC06CF06AC054
:1015D8006BF000016A6B88C16EF000016F6B706B75
:1015E800716B6FC071F06EC070F000016F6B6E6B45
:1015F80087C172F00001736B746B756B72C075F004
:101608000001746B736B726B00016E5100017211F3
:101618000001766F00016F51000173110001776FAF
:1016280000017051000174110001786F00017151BF
:10163800000175110001796F00016A5100017611EE
:1016480000017A6F00016B510001771100017B6F77
:1016580000016C510001781100017C6F00016D518F
:101668000001791100017D6F01018A5100017A1191
:101678000101236F00017B510101246F00017C519E
:101688000101256F00017D510101266F8DC16AF0AE
:1016980000016B6B6C6B6D6B6CC06DF06BC06CF0AC
:1016A8006AC06BF000016A6B8CC16EF000016F6B51
:1016B800706B716B6FC071F06EC070F000016F6B72
:1016C8006E6B8BC172F00001736B746B756B72C0BB
:1016D80075F00001746B736B726B00016E51000141
:1016E80072110001766F00016F5100017311000142
:1016F800776F00017051000174110001786F0001CB
:101708007151000175110001796F00016A510001E2
:10171800761100017A6F00016B5100017711000109
:101728007B6F00016C510001781100017C6F000192
:101738006D510001791100017D6F01018E51000189
:101748007A110101276F00017B510101286F000107
:101758007C510101296F00017D5101012A6F91C15E
:101768006AF000016B6B6C6B6D6B6CC06DF06BC0DD
:101778006CF06AC06BF000016A6B90C16EF00001FA
:101788006F6B706B716B6FC071F06EC070F00001A1
:101798006F6B6E6B8FC172F00001736B746B756B3E
:1017A80072C075F00001746B736B726B00016E513F
:1017B800000172110001766F00016F510001731171
:1017C8000001776F00017051000174110001786FFA
:1017D80000017151000175110001796F00016A5112
:1017E8000001761100017A6F00016B510001771139
:1017F80000017B6F00016C510001781100017C6FC2
:1018080000016D510001791100017D6F01019251B4
:1018180000017A1101012B6F00017B5101012C6F2E
:1018280000017C5101012D6F00017D5101012E6FD6
:101838000101945193C16AF000016B6B6AC06BF0AF
:1018480000016A6B00016A1101012F6F00016B51E1
:101858000101306F01019551D8B402D0010E01D0B9
:10186800000E0101316F01019651D8B402D0010E6A
:1018780001D0000E0101326F97C139F10101985171
:1018880000016A6F010199510101336F6AC034F197
:101898009BC16AF000016B6B6C6B6D6B6CC06DF07B
:1018A8006BC06CF06AC06BF000016A6B9AC16EF095
:1018B80000016F6B706B716B6FC071F06EC070F070
:1018C80000016F6B6E6B00016A5100016E1100011F
:1018D800726F00016B5100016F110001736F0001FD
:1018E8006C51000170110001746F00016D5100010D
:1018F80071110001756F01019C5100017211010104
:10190800356F000173510101366F000174510101F7
:10191800376F000175510101386F010E1200120076
:10192800550E0001716F760E0001726FEFEC25F015
:101938001B0E0001716F7E0E0001726FEFEC25F037
:101948001FC184F020C185F021C186F022C187F033
:10195800000E0001896F0A0E886F35EC26F0550ECF
:101968000001716F760E0001726FEFEC25F0E80E42
:101978000001716F7D0E0001726FEFEC25F023C13D
:1019880084F024C185F025C186F026C187F0000EB9
:101998000001896F0A0E886F35EC26F0550E00019C
:1019A800716F760E0001726FEFEC25F02C0E0001BE
:1019B800716F7E0E0001726FEFEC25F027C184F085
:1019C80028C185F029C186F02AC187F0000E0001E0
:1019D800896F0A0E886F35EC26F0550E0001716F7D
:1019E800760E0001726FEFEC25F0F90E0001716FB1
:1019F8007D0E0001726FEFEC25F02BC184F02CC135
:101A080085F02DC186F02EC187F0000E0001896F88
:101A18000A0E886F35EC26F0550E0001716F760EB0
:101A28000001726FEFEC25F00A0E0001716F7E0E57
:101A38000001726FEFEC25F021EE2FF0DECF84F07D
:101A4800DDCF85F00001000E85BFFF0E866F876F22
:101A5800000E0001896F0A0E886F35EC26F0550ECE
:101A68000001716F760E0001726FEFEC25F05F0ECA
:101A78000001716F7E0E0001726FEFEC25F001011D
:101A880031510001846F856B866B876B000E0001F6
:101A9800896F0A0E886F35EC26F0550E0001716FBC
:101AA800760E0001726FEFEC25F04E0E0001716F9B
:101AB8007E0E0001726FEFEC25F00101325100013A
:101AC800846F856B866B876B000E0001896F0A0E29
:101AD800886F35EC26F0550E0001716F760E000107
:101AE800726FEFEC25F03D0E0001716F7E0E000164
:101AF800726FEFEC25F0010139510001846F856B9D
:101B0800866B876B000E0001896F0A0E886F35ECB3
:101B180026F0550E0001716F760E0001726FEFEC22
:101B280025F0D70E0001716F7D0E0001726FEFEC8A
:101B380025F033C184F034C185F00001866B876BD2
:101B4800000E0001896F100E886F35EC26F0550ED7
:101B58000001716F760E0001726FEFEC25F0C60E72
:101B68000001716F7D0E0001726FEFEC25F035C139
:101B780084F036C185F037C186F038C187F0000E91
:101B88000001896F0A0E886F35EC26F0550E0001AA
:101B9800716F760E0001726FEFEC25F0550E0001A3
:101BA800716F760E0001726FEFEC25F0700E000178
:101BB800716F7E0E0001726FEFEC25F00001EE519F
:101BC8000001846F856B866B876B000E0001896F3F
:101BD8000A0E886F35EC26F0550E0001716F760EEF
:101BE8000001726FEFEC25F0920E0001716F7E0E0E
:101BF8000001726FEFEC25F00001E8510001846FDD
:101C0800856B866B876B000E0001896F0A0E886FE3
:101C180035EC26F0550E0001716F760E0001726FDB
:101C2800EFEC25F0810E0001716F7E0E0001726FDE
:101C3800EFEC25F00001E7510001846F856B866B9E
:101C4800876B000E0001896F0A0E886F35EC26F04D
:101C5800550E0001716F760E0001726FEFEC25F0E2
:101C68000001EF51D8A412004E0E0001716F7B0ED7
:101C78000001726FEFEC25F012001200040132052A
:101C8800D8A411D0040130511F0B0009D8A40BD0DF
:101C9800538E030E04013119D8A402D0010E01D0CD
:101CA800000E416E00D004013251D8A41200040184
:101CB80030511F0B020AD8A41200040134510F0B33
:101CC8000009D8B41200040134510F0B156E030E2D
:101CD80015601200200E4418D8A41200538E040177
:101CE80034BF1BD0040134510F0B156E1550020D73
:101CF800610EF324D96E010EF420DA6EDECF19F0EE
:101D0800DDCF1AF0040134510F0B156E1550010D7B
:101D18006F0EF324D96E010E1AD0040134510F0B43
:101D2800156E1550020D350EF324D96E000EF420F1
:101D3800DA6EDECF19F0DDCF1AF0040134510F0B43
:101D4800156E1550010DDD0EF324D96E000EF4202A
:101D5800DA6EDF50186E00D018B002D0199402D095
:101D6800198400D0040134BF0BD0040134510F0B87
:101D7800156E1550020D610EF324D96E010E0AD0AE
:101D8800040134510F0B156E1550020D350EF32456
:101D9800D96E000EF420DA6E19C0DEFF1AC0DDFF1E
:101DA80000D0030E04013119D8A433D019C0D9FFCB
:101DB8001AC0DAFFDFAE20D0040134BF0ED0040110
:101DC80034510F0B156E1550010D6F0EF324D96E9B
:101DD800010EF420DA6E01010DD0040134510F0B0D
:101DE800156E1550010DDD0EF324D96E000EF4208A
:101DF800DA6E0001DF8200D019C0D9FF1AC0DAFFFD
:101E0800000EDB8419C0D9FF1AC0DAFF000EDB8E82
:101E18001200040E191A19C0D9FF1AC0DAFFDFAE72
:101E28001BD019C0D9FF1AC0DAFF7F0EDF1619C000
:101E3800D9FF1AC0DAFF000EDB8C000E0E6E050EFD
:101E48000D6E19C00FF01AC010F0000E126E020EBF
:101E5800116EBEEC26F007D019C0D9FF1AC0DAFF00
:101E6800000EDB8C00D0040E191A18B206D019C067
:101E7800D9FF1AC0DAFFDFAE35D0040134BF0ED067
:101E8800040134510F0B156E1550010D6F0EF3241C
:101E9800D96E010EF420DA6E01010DD0040134511F
:101EA8000F0B156E1550010DDD0EF324D96E000EC3
:101EB800F420DA6E0001DF9200D019C0D9FF1AC0F1
:101EC800DAFF3B0EDF16000E0E6E050E0D6E19C002
:101ED8000FF01AC010F0000E126E020E116EBEEC5A
:101EE80026F007D019C0D9FF1AC0DAFF3B0EDF165B
:101EF80000D0040134510F0B156E1550010D6A0EF8
:101F0800F324166E0F0EF420176E16C0D9FF17C0F3
:101F1800DAFFFE0EDF1612001200000E0001696FD4
:101F2800000E686F0001625100016311D8A405D04A
:101F380068C060F069C061F01200FF0E0001681B04
:101F480000016251000160250001666F00016351C4
:101F5800000161210001676F00D060C0D9FF61C036
:101F6800DAFFDF500001646F000164510001681B53
:101F78000001604B612B000168B10CD0D8900001C2
:101F880069310001646F000168310001686F64C045
:101F980069F012D0B20E68C064F069C065F0000143
:101FA800D89065336433000164190001686F00013B
:101FB80065510001696F00D0000168B10CD0D8905C
:101FC800000169310001646F000168310001686F28
:101FD80064C069F012D0B20E68C064F069C065F0E0
:101FE8000001D89065336433000164190001686FFB
:101FF800000165510001696F00D0000168B10CD083
:10200800D890000169310001646F00016831000156
:10201800686F64C069F012D0B20E68C064F069C01D
:1020280065F00001D890653364330001641900013C
:10203800686F000165510001696F00D0000168B147
:102048000CD0D890000169310001646F000168313B
:102058000001686F64C069F012D0B20E68C064F005
:1020680069C065F00001D8906533643300016419D4
:102078000001686F000165510001696F00D000011F
:1020880068B10CD0D890000169310001646F00017B
:1020980068310001686F64C069F012D0B20E68C080
:1020A80064F069C065F00001D890653364330001BD
:1020B80064190001686F000165510001696F00D063
:1020C800000168B10CD0D890000169310001646F3B
:1020D800000168310001686F64C069F012D0B20E67
:1020E80068C064F069C065F00001D8906533643356
:1020F800000164190001686F000165510001696FF2
:1021080000D0000168B10CD0D890000169310001FD
:10211800646F000168310001686F64C069F012D013
:10212800B20E68C064F069C065F00001D8906533EC
:102138006433000164190001686F000165510001F2
:10214800696F00D0000168B10CD0D89000016931E6
:102158000001646F000168310001686F64C069F0B4
:1021680011D0B20E68C064F069C065F00001D89063
:1021780065336433000164190001686F000165511B
:102188000001696F000166510001605D000167513F
:1021980000016159D8A0E1D6FF0E000168190001BD
:1021A800606F000169510001616F120012000001A7
:1021B8008F6F21EE3AF010EE82F00C0EDBCFE3FFCA
:1021C800E806FCE2000E0001986F000E996F000E01
:1021D8009A6F000E9B6F000E00019D6F000E0001AC
:1021E800966F000E00019C6F000E0001976F000EA5
:1021F8000001906F000E916F000E926F000E936FAA
:102208008A0E0001716F7F0E0001726FEFEC25F0EE
:1022180095D0FEEC26F00001F1510001906F916B12
:10222800926B936B85D00001F1510001806F816B37
:102238000001801F811F804B812B000190510001FC
:1022480080270001915100018123400E0001802563
:10225800D96E020E00018121DA6EDF5000019E6FF7
:102268000001F107080E00019E19D8B405D07F0EB1
:1022780000019E19D8A408D000019C510001D8B4CF
:1022880057D000019C0754D00C0E00019C612ED041
:1022980000019D51800A790FD8B028D00D0E000199
:1022A8009E19D8B41AD02E0E00019E19D8B415D094
:1022B80000019C51010D820EF324D96E000EF4200A
:1022C800DA6E9EC0DFFF000196510001D8B402D03B
:1022D80000019D2B00019C2B00D02E0E00019E19A1
:1022E800D8A404D0010E0001966F00D00D0E000195
:1022F8009E19D8A418D000019C510001D8A404D07C
:10230800300EBAEC29F000D0010E0001976F0001E1
:102318009C51010D820EF324D96E000EF420DA6E62
:10232800000EDF6E05D000019E51BAEC29F000D0F6
:102338000001F151D8B402D076D700D000019751EE
:102348000001D8B466D7820E00016C6F000E000140
:102358006D6F940E00016E6F000E00016F6F000E1E
:102368000001716F0A0E706F1FEC12F06CC098F0CC
:102378006DC099F06EC09AF06FC09BF000019D513E
:10238800000800018F2500019D6F00019DBF20D02E
:1023980043D01ED098C060F099C061F09AC062F036
:1023A8009BC063F00A0E0001646F000E656F000E9B
:1023B800666F000E676FADEC1AF060C098F061C0F0
:1023C80099F062C09AF063C09BF000019D2B00D089
:1023D80000019DAF27D0DED725D01ED098C060F071
:1023E80099C061F09AC062F09BC063F00A0E0001C8
:1023F800646F000E656F000E666F000E676F3DEC30
:1024080027F060C098F061C099F062C09AF063C08C
:102418009BF000019D0700D000019D51800A7F0FAD
:10242800D8B0DCD798C07CF099C07DF09AC07EF017
:102438009BC07FF012006CC0D9FF6DC0DAFFDF507F
:1024480000017B6F00016C4B6D2B00017B5181EC0F
:1024580029F0D8B0F0D7000E0001776F000E786F22
:10246800000E796F000E7A6F000E0001766F2D0E48
:1024780000017B19D8A408D0010E0001766F09D09D
:1024880000016C4B6D2B0ED02B0E00017B19D8A4CC
:1024980009D06CC0D9FF6DC0DAFFDF5000017B6F37
:1024A800EFD700D0300E00017B19D8A43DD06CC006
:1024B800D9FF6DC0DAFFDF5000017B6F00016C4B64
:1024C8006D2B0001705100017111D8B407D0100EA6
:1024D8000001701900017111D8A41AD0780E0001FA
:1024E8007B19D8B405D0580E00017B19D8A410D098
:1024F800000E0001716F100E706F6CC0D9FF6DC0B7
:10250800DAFFDF5000017B6F00016C4B6D2B0CD0A4
:102518000001705100017111D8A406D0000E00010D
:10252800716F080E706F00D00001705100017111B9
:10253800D8A406D0000E0001716F0A0E706F00D08B
:1025480000017B5163EC29F0D8A008D000017B5131
:1025580084EC2BF0C90F00017B6F0CD000017B517C
:102568009CEC2AF0D8A051D0300E00017B5F02D03D
:102578004CD000D000017B510001726F736B0001D9
:1025880070510001725D00017351800A0001746F7F
:1025980000017151800A00017459D8B036D001D0B9
:1025A80034D070C060F071C061F00001000E61BFEE
:1025B800FF0E626F636F77C064F078C065F079C012
:1025C80066F07AC067F03DEC27F000017B5100010E
:1025D80060250001776F000E000161210001786F0E
:1025E800000E000162210001796F000E00016321D5
:1025F80000017A6F6CC0D9FF6DC0DAFFDF500001AF
:102608007B6F00016C4B6D2B9BD700016E51000155
:102618006F11D8B413D0FF0E00016C250001726F42
:10262800FF0E00016D210001736F6EC0D9FF6FC0EE
:10263800DAFF72C0DEFF73C0DDFF00D00001765103
:102648000001D8B41BD077C072F078C073F079C09D
:1026580074F07AC075F00001721F731F741F751F24
:10266800722B000E73237423752372C06CF073C031
:102678006DF074C06EF075C06FF0120077C06CF02A
:1026880078C06DF079C06EF07AC06FF01200000E5D
:1026980000019F6F000E0001A06F440E0001716FD2
:1026A8007C0E0001726FEFEC25F0FED0CAD09F0EB1
:1026B8000001716F7D0E0001726FEFEC25F0000EC6
:1026C800DBEC10F07CC01FF17DC020F17EC021F151
:1026D8007FC022F1D7D0B30E0001716F7A0E0001CE
:1026E800726FEFEC25F0070EDBEC10F07CC023F1E5
:1026F8007DC024F17EC025F17FC026F1C3D0920EA3
:102708000001716F7A0E0001726FEFEC25F0070E71
:10271800DBEC10F07CC027F17DC028F17EC029F1E8
:102728007FC02AF1AFD0580E0001716F760E0001FC
:10273800726FEFEC25F0000EDBEC10F07CC02BF193
:102748007DC02CF17EC02DF17FC02EF19BD0C40E30
:102758000001716F790E0001726FEFEC25F0010E28
:10276800DBEC10F07CC02FF17DC030F18BD00B0E6C
:102778000001716F7A0E0001726FEFEC25F0000E08
:10278800DBEC10F000017C5100017D1100017E118D
:1027980000017F11D8B402D0010E01D0000E010152
:1027A800316F70D0110E0001716F7B0E0001726FD6
:1027B800EFEC25F0000EDBEC10F000017C5100017D
:1027C8007D1100017E1100017F11D8B402D0010EE5
:1027D80001D0000E0101326F55D0570E0001716F04
:1027E800790E0001726FEFEC25F0000EDBEC10F0B3
:1027F8007CC033F17DC034F145D05D0E0001716FAE
:102808007C0E0001726FEFEC25F0000EDBEC10F08F
:102818007CC035F17DC036F17EC037F17FC038F11C
:1028280031D01C0E0001716F780E0001726FEFEC51
:1028380025F0000EDBEC10F000017C510101396F2E
:1028480021D00001A051000AD8B431D7010AD8B468
:1028580042D7030AD8B453D7010AD8B464D7070AB1
:10286800D8B475D7010AD8B482D7030AD8B49AD78E
:10287800010AD8B4B2D70F0AD8B4BFD7010AD8B45E
:10288800D0D700D0550E0001716F760E0001726F1F
:10289800EFEC25F00001A02B090E0001A06504D083
:1028A800010E00019F6F00D000019F510001D8B4B4
:1028B800C8D7700E0001716F780E0001726FEFECCF
:1028C80025F0120000016C6F9DD00C0E0001636FA3
:1028D8007F0E0001646F0C0E0001656F8FEC1EF017
:1028E8001200190E0001636F7F0E0001646F0C0E59
:1028F8000001656F8FEC1EF01200260E0001636F59
:102908007F0E0001646F0C0E0001656F8FEC1EF0E6
:102918001200330E0001636F7F0E0001646F0C0E0E
:102928000001656F8FEC1EF01200400E0001636F0E
:102938007F0E0001646F0C0E0001656F8FEC1EF0B6
:1029480012004D0E0001636F7F0E0001646F0C0EC4
:102958000001656F8FEC1EF012005A0E0001636FC4
:102968007F0E0001646F0C0E0001656F8FEC1EF086
:102978001200670E0001636F7F0E0001646F0C0E7A
:102988000001656F8FEC1EF01200740E0001636F7A
:102998007F0E0001646F0C0E0001656F8FEC1EF056
:1029A8001200D40E0001636F7E0E0001646F0D0EDD
:1029B8000001656F8FEC1EF01200E20E0001636FDC
:1029C8007E0E0001646F0D0E0001656F8FEC1EF026
:1029D8001200F00E0001636F7E0E0001646F0D0E91
:1029E8000001656F8FEC1EF01200FE0E0001636F90
:1029F8007E0E0001646F0D0E0001656F8FEC1EF0F6
:102A080012002AD000016C51010AD8B45ED7030A1B
:102A1800D8B467D7010AD8B470D7070AD8B479D719
:102A2800010AD8B482D7030AD8B48BD7010AD8B41C
:102A380094D70F0AD8B49DD7010AD8B4A6D7030AE9
:102A4800D8B4AFD7010AD8B4B8D7070AD8B4C1D711
:102A5800010AD8B4CAD700D0000E12001200000133
:102A6800676F9CD00C0E0001616F7F0E0001626FD2
:102A78000C0E0001636F71EC28F01200190E0001B2
:102A8800616F7F0E0001626F0C0E0001636F71ECC5
:102A980028F01200260E0001616F7F0E0001626FA0
:102AA8000C0E0001636F71EC28F01200330E000168
:102AB800616F7F0E0001626F0C0E0001636F71EC95
:102AC80028F01200400E0001616F7F0E0001626F56
:102AD8000C0E0001636F71EC28F012004D0E00011E
:102AE800616F7F0E0001626F0C0E0001636F71EC65
:102AF80028F012005A0E0001616F7F0E0001626F0C
:102B08000C0E0001636F71EC28F01200670E0001D3
:102B1800616F7F0E0001626F0C0E0001636F71EC34
:102B280028F01200740E0001616F7F0E0001626FC1
:102B38000C0E0001636F71EC28F01200D40E000136
:102B4800616F7E0E0001626F0D0E0001636F71EC04
:102B580028F01200E20E0001616F7E0E0001626F24
:102B68000D0E0001636F71EC28F01200F00E0001E9
:102B7800616F7E0E0001626F0D0E0001636F71ECD4
:102B880028F01200FE0E0001616F7E0E0001626FD8
:102B98000D0E0001636F71EC28F0120000016751FF
:102BA800010AD8B45FD7030AD8B468D7010AD8B4E1
:102BB80071D7070AD8B47AD7010AD8B483D7030AD9
:102BC800D8B48CD7010AD8B495D70F0AD8B49ED7F1
:102BD800010AD8B4A7D7030AD8B4B0D7010AD8B421
:102BE800B9D7070AD8B4C2D7010AD8A41200CAD7DD
:102BF8001200A39401017A5101017B11D8B413D0BA
:102C08007AC1D9FF7BC1DAFF0101DFAE04D0000130
:102C1800676B672B02D00001676B000167510001E9
:102C2800686F696B06D0000E0001696F000E686F4F
:102C380000D00001685100016911D8B402D0A38402
:102C48001200030E4618D8A402D0000E466E465055
:102C5800D8A402D0A3841200020E4618D8A416D015
:102C6800010E0001606F000E0001616F000E00018F
:102C7800626F000E0001636F020EFDEC1FF060C072
:102C88007AF161C07BF1030E466E79D04604D8A470
:102C980076D0400E0001EB6504D0400E00016B6F4A
:102CA80003D0EBC06BF000D000016B5100080001AD
:102CB800EB250001EB6F000E0101726F050E01019B
:102CC800736F6BC06AF00001E951D8B415D02FD0EA
:102CD80013D075C1D9FF76C1DAFF72C1E1FF73C1A4
:102CE800E2FFDFCFE7FF0101724B732B0101754B48
:102CF800762B00016A0700D000016A510001D8B4A0
:102D08001DD0E7D71BD013D075C1D9FF76C1DAFF24
:102D180072C1E1FF73C1E2FFDFCFE7FF0101724B30
:102D2800732B0101754B762B00016A0700D0000157
:102D38006A510001D8B402D0E7D700D00001EB51A6
:102D4800D8A40AD0400E00016B19D8A402D0020EF4
:102D580001D0030E466E00D0010E0001606F000E18
:102D68000001616F050E0001626F6BC063F0020E17
:102D7800FDEC1FF060C07AF161C07BF100D0A38444
:102D88001200550E0001716F760E0001726FEFECA4
:102D980025F0550E0001716F760E0001726FEFEC91
:102DA80025F0810E0001716F7F0E0001726FEFEC4C
:102DB80025F0320E0001716F790E0001726FEFEC91
:102DC80025F0980E0001716F780E0001726FEFEC1C
:102DD80025F0710E0001716F7A0E0001726FEFEC31
:102DE80025F0A50E0001716F7B0E0001726FEFECEC
:102DF80025F0110E0001716F7C0E0001726FEFEC6F
:102E080025F02E0E0001716F7A0E0001726FEFEC43
:102E180025F0F10E0001716F770E0001726FEFEC73
:102E280025F0270E0001716F760E0001726FEFEC2E
:102E380025F0760E0001716F7C0E0001726FEFECC9
:102E480025F02B0E0001716F7C0E0001726FEFEC04
:102E580025F08E0E0001716F7C0E0001726FEFEC91
:102E680025F0A60E0001716F7C0E0001726FEFEC69
:102E780025F0A00E0001716F790E0001726FEFEC62
:102E880025F0500E0001716F7A0E0001726FEFECA1
:102E980025F0C60E0001716F770E0001726FEFEC1E
:102EA80025F06E0E0001716F770E0001726FEFEC66
:102EB80025F0490E0001716F7D0E0001726FEFEC75
:102EC80025F0BE0E0001716F7C0E0001726FEFECF1
:102ED80025F0550E0001716F760E0001726FEFEC50
:102EE80025F012000001D16F21EE1FF000EE64F012
:102EF8001A0EDBCFEBFFE806FCE232EC06F022EE1E
:102F080080F010EEA1F02F0EDBCFE3FFE806FCE225
:102F180034D0310E0001CE6F320E0001CE6F330E69
:102F28000001CE6F340E0001CE6F350E0001CE6F5A
:102F3800360E0001CE6F370E0001CE6F380E00013D
:102F4800CE6F390E0001CE6F310E0001CE6F300EFC
:102F58000001CF6F310E0001CE6F310E0001CF6F2F
:102F6800310E0001CE6F320E0001CF6F310E00011D
:102F7800CE6F330E0001CF6F2AD00001D151010A64
:102F8800D8B4C7D7030AD8B4C7D7010AD8B4C7D7A3
:102F9800070AD8B4C7D7010AD8B4C7D7030AD8B420
:102FA800C7D7010AD8B4C7D70F0AD8B4C7D7010AF8
:102FB800D8B4C7D7030AD8B4C7D7010AD8B4CAD770
:102FC800070AD8B4CDD7010AD8B4D0D700D0000E9C
:102FD8000001D26F0C0E0001D36F2A0E0001D365D9
:102FE80001D019D00001D251010D000EF324D96E81
:102FF800010EF420DA6E0001D351010DA10EF32465
:10300800E16E000EF420E26EDFCFE7FF0001D22B65
:103018000001D32BE2D7A10E0001636F000E00015F
:10302800646F2E0E0001656F8FEC1EF00009D8A4A6
:1030380002D0000E1200010E12001200A394000E1E
:10304800676E000E656E000E6A6E6B0E0001606F93
:103058000F0E0001616F000E0001636F000E626FBA
:10306800000E0001656F020E646FD5EC29F0160E94
:10307800626E9F0E666E7B0E646E000E0001686FB6
:1030880010D013D000016851040D000EF324D96E3E
:10309800040EF420DA6EDE6ADE6ADE6ADD6A00019A
:1030A800682B0B0E00016865EDD7608C000E636E0F
:1030B8006098609C0AD06596000E536E000E306EC4
:1030C800000E326E000E316E00D065B6F4D7010ED8
:1030D8000001E56F010E0001E66F000E0001E36FCD
:1030E800000E0001E46F000E426E000E0001686FD2
:1030F800020E0001686501D033D000016851020D4D
:10310800350EF324D96E000EF420DA6E000EDE6E52
:10311800000EDD6E00016851020D610EF324D96EB8
:10312800010EF420DA6E000EDE6E000EDD6E000178
:103138006851010DDD0EF324D96E000EF420DA6E0D
:10314800000EDF6E00016851010D6F0EF324D96E79
:10315800010EF420DA6E000EDF6E0001682BC8D76E
:10316800080E356E040E366E160E6A6E040E0401D5
:10317800036F300E026F080E0401016F040E040184
:10318800006F0401008F000E566E000E446E120090
:103198004404D8B460BA07D0000E656E64806488B1
:1031A800020E446E00D065B464A404D065946CEC3F
:1031B8002AF000D060A202D0A494120065B064A0E6
:1031C80007D012EC1AF0A384040E446E659000D068
:1031D80065B864A804D03AEC2BF0659800D065ACCB
:1031E8001DD064AC0FD0000E0E6E730E0D6E000E67
:1031F8000F6E000E106E000E126E010E116EBEECF8
:1032080026F000D0659C4550D8B402D0450600D0C1
:103218004550D8A403D0B2EC21F000D065BA64AA16
:1032280003D0C1EC28F000D065B264A210D07F0EA4
:103238000E6E0D68000E0F6E000E106E000E126EF0
:10324800010E116EBEEC26F0000E676E00D0040E63
:10325800446002D0A494120064A63FD0000E1E6EF3
:10326800030E1E6401D039D065A637D061CF57F060
:103278005730E832E8320F0B486E659657B40AD0DB
:103288004850010D6F0EF324D96E010EF420DA6E4A
:10329800010109D04850010DDD0EF324D96E000E4E
:1032A800F420DA6E0001DF7000D04850D8A403D0B3
:1032B8004AEC21F010D0000E0E6E720E0D6E570EF5
:1032C8000F6E000E106E000E126E000E116EBEEC28
:1032D80026F001D002D01E2AC3D7A4941200000EF3
:1032E8000001666F92D060C0D9FF61C0DAFFDF507D
:1032F8000001636F00016651020DAF0EF324D96E11
:10330800010EF420DA6EDECFF6FFDDCFF7FF0800FE
:10331800F55000016319D8A475D0000120EE01F022
:103328006051D9266151DA22DF500001636F000134
:103338006651020DAF0EF324D96E010EF420DA6E39
:10334800DECF64F0DDCF65F0010E00016427000ECA
:10335800652364C0F6FF65C0F7FF0800F55000015B
:103368006319D8A44FD0000120EE02F06051D9268D
:103378006151DA22DF500001636F00016651020DCE
:10338800AF0EF324D96E010EF420DA6EDECF64F0AE
:10339800DDCF65F0020E00016427000E652364C0CE
:1033A800F6FF65C0F7FF0800F55000016319D8A4BF
:1033B80029D0000120EE03F06051D9266151DA22AC
:1033C800DF500001636F00016651020DAF0EF32458
:1033D800D96E010EF420DA6EDECF64F0DDCF65F031
:1033E800030E00016427000E652364C0F6FF65C064
:1033F800F7FF0800F55000016319D8A403D00001B5
:10340800665112000001662B00D000016651800A47
:103418006D0FD8A068D7FF0E12001200A394000EFB
:10342800676E000E656E000E6A6E6B0E016E0F0EF3
:10343800026E000E046E000E036E000E066E020E83
:10344800056EF8EC2AF0160E626E9F0E666E7B0E05
:10345800646E000E096E0ED010D00950040D000ED7
:10346800F324D96E040EF420DA6EDE6ADE6ADE6AB0
:10347800DD6A092A0B0E0964F0D7608C000E636EB2
:103488006098609C0AD06596000E536E000E306EF0
:10349800000E326E000E316E00D065B6F4D7010E04
:1034A8000001E56F010E0001E66F000E0001E36FF9
:1034B800000E0001E46F000E426E000E096E020E4F
:1034C800096401D02ED00950020D350EF324D96EAF
:1034D800000EF420DA6E000EDE6E000EDD6E09506E
:1034E800020D610EF324D96E010EF420DA6E000E7F
:1034F800DE6E000EDD6E0950010DDD0EF324D96E6F
:10350800000EF420DA6E000EDF6E0950010D6F0E0A
:10351800F324D96E010EF420DA6E000EDF6E092A4C
:10352800CED7080E356E040E366E160E6A6E040E71
:103538000401036F300E026F080E0401016F040EC0
:103548000401006F0401008F000E566E000E446ED9
:103558001200000E0001696F000167AF0DD0000175
:10356800671F661F651F646D000E6523662367234A
:10357800010E0001696F00D0000163AF0DD000019A
:10358800631F621F611F606D000E61236223632346
:10359800010E0001691B00D0000E00016A6F000EC9
:1035A8006B6F000E6C6F000E6D6F000164510001AF
:1035B80065110001661100016711D8B447D0010EEA
:1035C8000001686F09D00001D89064376537663705
:1035D80067370001682B00D0000167BF02D0F3D71E
:1035E80000D00001D8906A376B376C376D3700010F
:1035F80064510001605D00016551000161590001DD
:103608006651000162590001675100016359D8A051
:1036180013D0000164510001605F00016551000191
:10362800615B000166510001625B000167510001A6
:10363800635B00016A8100D00001D890673366336C
:10364800653364330001682FCCD700D0000169517D
:103658000001D8B40AD000016D1F6C1F6B1F6A6D82
:10366800000E6B236C236D2300D06AC060F06BC022
:1036780061F06CC062F06DC063F012001200800E41
:1036880004013019D8A41200C00E536E7CD0F60E77
:10369800506E740E516E000E556E120E546E12005E
:1036A80004013251D8A43ED004013251020D2B0E30
:1036B800F324F66E740EF420F76E0900F5CF50F07F
:1036C8000A00F5CF51F0020E5024016E000E512071
:1036D800026E01C0F6FF02C0F7FFF86A070EF76432
:1036E80003D00800F55005D0F6CFE9FFF7CFEAFF81
:1036F800EF50546E030E5024016E000E5120026EDE
:1037080001C0F6FF02C0F7FFF86A070EF76403D09E
:103718000800F55005D0F6CFE9FFF7CFEAFFEF50E4
:10372800556E1200000E536E1200030E0401326132
:1037380024D004013251020D1D0EF324F66E740ECE
:10374800F420F76E0900F5CF50F00A00F5CF51F0DC
:1037580050C0F6FF51C0F7FFF86A070EF76403D0B0
:103768000800F55005D0F6CFE9FFF7CFEAFFEF5094
:10377800016E0150546E556A1200000E536E12000D
:10378800000E536E120004013351010AD8B47FD7DA
:10379800030AD8B485D7010AD8B4C7D7F1D712001D
:1037A80012006FC075F070C076F071C077F072C00B
:1037B80078F000D075C060F076C061F077C062F034
:1037C80078C063F073C064F074C065F00001000E47
:1037D80065BFFF0E666F676F7FEC22F060C075F003
:1037E80061C076F062C077F063C078F000016D4B7D
:1037F8006E2B00017551000176110001771100014F
:103808007811D8A4D7D76DC0D9FF6EC0DAFF000EE3
:10381800DF6E00016D07D8A06E0700D06FC060F0A2
:1038280070C061F071C062F072C063F073C064F080
:1038380074C065F00001000E65BFFF0E666F676F0C
:10384800B3EC24F0000160510001796F6FC060F0A3
:1038580070C061F071C062F072C063F073C064F050
:1038680074C065F00001000E65BFFF0E666F676FDC
:103878007FEC22F060C06FF061C070F062C071F040
:1038880063C072F0090E0001796503D0070E0001CC
:103898007927300E000179276DC0D9FF6EC0DAFF95
:1038A80079C0DFFF00016D07D8A06E0700016F51D6
:1038B800000170110001711100017211D8A4AED776
:1038C8001200000E00016D6F000E6E6F000E6F6F1C
:1038D800000E706F21C184F120C185F11FC186F1EE
:1038E80026C187F125C188F124C189F123C18AF154
:1038F8002AC18BF129C18CF128C18DF127C18EF124
:103908002EC18FF12DC190F12CC191F12BC192F1F3
:10391800010130510101936F2FC194F131C195F12B
:1039280032C196F139C197F1010134510101986F03
:1039380033C199F137C19AF136C19BF135C19CF178
:10394800F29EF29C000E0001716F15D000017151BA
:10395800010D840EF324D96E010EF420DA6EDF50C7
:103968000001606F0001715100016D2544EC29F0E0
:103978000001712B00D058500001715DD8A0E6D726
:10398800F28EF28C000E00016C6F000E6B6F840ECD
:103998000001606F010E0001616F58C062F0000104
:1039A800636B91EC0FF060C06BF061C06CF0F29E3D
:1039B800F29C00016C510001606F585000016D25A8
:1039C80044EC29F06BC060F0585000016D250001EF
:1039D8006A6F00016A2944EC29F0F28EF28C120019
:1039E800585000016A6F6B6B030E00016A27000EC6
:1039F8006B236AC070F06BC071F00001000E71BFDC
:103A0800FF0E726F736F000E00016F6F000E6E6F06
:103A1800000E0001756F000E746F000175BF0AD0AB
:103A2800000175511BE1030E0001745DD8B016D07A
:103A380001D014D0840E00017425D96E010E000146
:103A48007521DA6E0001745100017025A4EC2BF089
:103A5800DF6E0001744B752BE0D700D00001705168
:103A6800030FA4EC2BF000016A6F00016A510001FA
:103A78006C6F6B6B00017051040FA4EC2BF000010C
:103A88006D6F00016D5100016B1100016E6F000137
:103A98006C5100016F6F840E0001606F010E000110
:103AA800616F000E0001636F030E626F91EC0FF0FF
:103AB80000016E510001601906E100016F5100011B
:103AC8006119D8B402D0000E120001018451D8B493
:103AD80002D0010E01D0000E0001EE6F01018551E8
:103AE800D8B402D0010E01D0000E0001E86F86C1E3
:103AF800E7F0010E1200120020EE01F03B50D9262B
:103B08003C50DA22DF50026E0250315C000E32580F
:103B1800D8B003D031C002F000D00250315E000EA0
:103B2800325A000E016E12D00150010D380EF324E6
:103B3800D96E040EF420DA6E2DC0E1FF2EC0E2FF2C
:103B4800DFCFE7FF2D4A2E2A012A00D00250015C60
:103B5800D8A0EAD731503210D8B432D020EE01F0D4
:103B68003D50D9263E50DA22080EDF6E20EE02F0D4
:103B78003D50D9263E50DA22380EDE6E040EDD6E38
:103B88003BC0D9FF3CC0DAFFDFBC0DD03DC0D9FF38
:103B98003EC0DAFF480EDF6E3DC0D9FF3EC0DAFFF7
:103BA800000EDB8E12003DC0D9FF3EC0DAFF080EC2
:103BB800DF6E3DC0D9FF3EC0DAFF000EDB8E12007B
:103BC80020EE01F03D50D9263E50DA22080EDF6E75
:103BD80020EE02F03D50D9263E50DA22300EDE6E3D
:103BE800040EDD6E3DC0D9FF3EC0DAFF040EDF6E65
:103BF8003DC0D9FF3EC0DAFF000EDB8E309E435039
:103C0800D8A41200B2EC21F012001200609853BE42
:103C18003DD030AE10D0020E476E0001E451D8A45A
:103C280003D005EC25F000D0000E0001E66F000E71
:103C38000001E56F120020EE01F03D50D9263E50FC
:103C4800DA22080EDF6E20EE02F03D50D9263E50F3
:103C5800DA22300EDE6E040EDD6E3DC0D9FF3EC0A6
:103C6800DAFF0C0EDF6E3DC0D9FF3EC0DAFF000E52
:103C7800DB8E35C0D9FF36C0DAFF040EDF6E35C0E3
:103C8800D9FF36C0DAFF000EDB8E1200040130AF18
:103C980015D0010E476E0001E351D8A403D005ECFE
:103CA80025F000D0000E0001E66F000E0001E56F60
:103CB8004350D8A41200B2EC21F01200020E476E55
:103CC80020EE01F03D50D9263E50DA22080EDF6E74
:103CD80020EE02F03D50D9263E50DA22300EDE6E3C
:103CE800040EDD6E3DC0D9FF3EC0DAFF040EDF6E64
:103CF8003DC0D9FF3EC0DAFF000EDB8E000E00018A
:103D0800E66F000E0001E56F4350D8A41200B2EC34
:103D180021F012001200000E0001696F000E000170
:103D2800686F03D004EC29F000D04950D8B462D0B1
:103D3800F9D760D04950D8B419D004EC29F0000163
:103D48006A6F4F0E00016A19D8A451D04950D8B4EF
:103D58004ED004EC29F000016A6F4B0E00016A197D
:103D6800D8A445D0010E0001696F41D0000E0001B2
:103D78006B6F29D000016B51010D63C066F064C000
:103D880067F0F35000016627F4500001672366C00E
:103D9800F6FF67C0F7FFF86A070EF76403D008005C
:103DA800F55005D0F6CFE9FFF7CFEAFFEF50E3EC87
:103DB80028F0000E0001616F010E606FCAEC2AF056
:103DC80000016B2B00D00001655100016B5DD8A08C
:103DD800D1D70D0EE3EC28F00A0EE3EC28F0000E24
:103DE8000001616F010E606FCAEC2AF000D000017B
:103DF800682B00D0000169510001D8A408D04A0EF0
:103E08000001686597D703D004EC29F000D0495029
:103E1800D8A4FAD70001695112001200000E00015F
:103E2800EA6F0001E0510001E111D8B413D0E0C0FD
:103E3800D9FFE1C0DAFF0001DFAE04D000016A6BF0
:103E48006A2B02D000016A6B00016A5100016B6F96
:103E58006C6B06D0000E00016C6F000E6B6F00D00B
:103E680000016B5100016C11D8A44ED0000120EE66
:103E780001F0E051D926E151DA2200016951DE5CF6
:103E8800D8B00BD0000120EE01F0E051D926E15165
:103E9800DA22DF500001696F00D0000E0001EA6FDE
:103EA80019D00001EA51010D400EF324D96E050E18
:103EB800F420DA6E0001EA51010DF3500001672584
:103EC800E16EF45000016821E26EDFCFE7FF0001E8
:103ED800EA2B00D0000169510001EA5DD8A0E1D7C2
:103EE800000E0001606F400E0001616F050E0001B9
:103EF800626F400E0001636F020EFDEC1FF060C0A0
:103F0800E0F061C0E1F000D00001EA5112001200B7
:103F180004013039E832030B0009D8A4120046D056
:103F2800120044D0538E080E446E120043EC1BF06E
:103F380012006CEC20F01200560E506E000E516EFE
:103F48005380010E546E538E1200FEEC23F01200C3
:103F580000D042EC0EF0120004013451010DAD0EF8
:103F6800F324506E010EF420516E5380010E546EEE
:103F7800538E1200538E04013451010DAD0EF324FB
:103F8800D96E010EF420DA6E32C4DFFF1200000E83
:103F98000E6E020E0D6E000E0F6E000E106E000EED
:103FA800126E000E116EBEEC26F0120004013151A3
:103FB800000AD8B4CAD7010AD8B4CBD7020AD8B4F1
:103FC800C8D7060AD8B4AED7030AD8B4AFD7010AFF
:103FD800D8B4DDD70F0AD8B4AFD7010AD8B4A9D757
:103FE800030AD8B4B9D7010AD8B4C4D7070A12004B
:103FF80012000001646F000160510001D8B408D0BC
:1040080000016451020D350EF324D96E000E07D05D
:1040180000016451020D610EF324D96E010EF420E3
:10402800DA6EDECF65F0DDCF66F000D000016551B5
:1040380000016611D8A407D0000E0001606F000EC1
:104048000001616F1200000120EE02F06551D926CF
:104058006651DA2261C0DEFF62C0DDFF000120EE9A
:1040680001F06551D9266651DA2263C0DFFF65C0C9
:10407800D9FF66C0DAFF400EDF1665C0D9FF66C0FB
:10408800DAFF000EDB8665C0D9FF66C0DAFF000ED6
:10409800DB8E000160510001D8B408D000016451E2
:1040A800020D350EF324D96E000E07D000016451BD
:1040B800020D610EF324D96E010EF420DA6E040E9F
:1040C800DF1A00D065C060F066C061F0120012000F
:1040D800538E6B0E016E0F0E026E000E046E000EF4
:1040E800036E000E066E020E056EF8EC2AF0000E46
:1040F800016E040E026E000E046E000E036E000EBA
:10410800066E300E056EF8EC2AF0608C000E156E07
:10411800020E156401D016D01550010DDD0EF324E2
:10412800D96E000EF420DA6E000EDF6E1550010D08
:104138006F0EF324D96E010EF420DA6E000EDF6ED6
:10414800152AE6D7AD0E016E010E026E000E046E42
:10415800000E036E000E066E020E056EF8EC2AF0D5
:10416800609C080E356E040E366E000E3B6E040E13
:104178003C6E3BC03DF03CC03EF032C456F0565059
:10418800D8A403D0100E446E1200000E0E6E010E5D
:104198000D6E560E0F6E000E106E000E126E010E92
:1041A800116EBEEC26F0200E446E12001200080EAE
:1041B800016E555011E1080E545CD8B00DD054C0B2
:1041C80001F04F50D8A402D0010E04D04F04D8A457
:1041D80003D0020E4F6E00D00150545E000E555AA7
:1041E80020EE01F03550D9263650DA2201C0DFFF23
:1041F800380E01017E6F040E01017F6F53A01ED09F
:104208003FD01CD050C0F6FF51C0F7FFF86A7EC1FE
:10421800D9FF7FC1DAFF070EF76403D00800F55015
:1042280005D0F6CFE9FFF7CFEAFFEF50DF6E504A2F
:10423800512A01017E4B7F2B010600D00150D8B4D2
:104248001200E0D712001CD050C0F6FF51C0F7FF93
:10425800F86A7EC1D9FF7FC1DAFF070EF76403D081
:104268000800F55005D0F6CFE9FFF7CFEAFFEF5089
:10427800DF6E504A512A01017E4B7F2B010600D088
:104288000150D8B41200E0D7120012002D0E456E6E
:1042980057C01BF0FD0E1B16D8A457D057C01BF0F3
:1042A800D8901B323F0E1B161B50040D000EF32432
:1042B8003B6E040EF4203C6E3BC03DF03CC03EF02B
:1042C800040E3D1A3BC0D9FF3CC0DAFFDF30E832AC
:1042D8000F0B0D0AD8A436D0000E1D6E070E1D64F4
:1042E80001D023D020EE02F03B50D9263C50DA22F0
:1042F800DECF1BF0DDCF1CF01BC0D9FF1CC0DAFFDE
:104308001D50010D300EF324E16E040EF420E26E10
:10431800DFCFE7FF20EE02F03B50D9263C50DA22EF
:10432800DE2A000EDD221D2AD9D720EE02F03B50EE
:10433800D9263C50DA22300EDE6E040EDD6E7AECA1
:1043480026F01200E2EC27F012005750FD0B040A89
:10435800D8A4120042EC23F0120012000001E5512B
:10436800D8A41200010E0001E56F0001E651D8A49F
:104378001200010E0001E66F020E4718D8A415D0EE
:1043880020EE01F03550D9263650DA22000EDF6EC5
:1043980035C0D9FF36C0DAFF480EDF6E35C0D9FF09
:1043A80036C0DAFF000EDB8E12004704D8A41200D4
:1043B800000E0001E26F20EE01F03B50D9263C5080
:1043C800DA22080EDF6E20EE02F03B50D9263C5070
:1043D800DA22300EDE6E040EDD6E3BC0D9FF3CC023
:1043E800DAFF040EDF6E3BC0D9FF3CC0DAFF000ED7
:1043F800DB8E010E0001E26F20EE01F03D50D92660
:104408003E50DA22080EDF6E20EE02F03D50D9262B
:104418003E50DA22300EDE6E040EDD6E3DC0D9FF4E
:104428003EC0DAFF800EDF6E120012005850000105
:104438006A6F6B6B030E00016A27000E6B236AC05C
:104448006EF06BC06FF00001000E6FBFFF0E706F53
:10445800716FEEC084F1E8C085F1E7C086F1F29E85
:10446800F29C000E0001726F15D018D00001725135
:10447800010D840EF324D96E010EF420DA6EDF509C
:104488000001606F0001725100016E2544EC29F0B3
:104498000001722B020E00017265E8D7F28EF28CD1
:1044A800000E00016D6F000E6C6F840E0001606FCE
:1044B800010E0001616F000E0001636F030E626F51
:1044C80091EC0FF060C06CF061C06DF0F29EF29C50
:1044D80000016D510001606F00016E51030F44EC43
:1044E80029F06CC060F000016E51040F44EC29F013
:1044F800F28EF28C1200000E0001686F000E696FD8
:10450800000E6A6F000E6B6F0001645100016511A7
:104518000001661100016711D8B447D0010E0001EF
:104528006C6F09D00001D8906437653766376737F4
:1045380000016C2B00D0000167BF02D0F3D700D078
:104548000001D890683769376A376B3700016451C2
:104558000001605D0001655100016159000166516B
:10456800000162590001675100016359D8A013D0B6
:10457800000164510001605F000165510001615B49
:10458800000166510001625B000167510001635B35
:104598000001688100D00001D89067336633653325
:1045A800643300016C2FCCD700D068C060F069C0BC
:1045B80061F06AC062F06BC063F01200056E0150D2
:1045C800D8B407D00550020D350EF324D96E000E6D
:1045D80006D00550020D610EF324D96E010EF420A9
:1045E800DA6EDECF06F0DDCF07F000D006500710F8
:1045F800D8A405D0000E016E000E026E120020EE47
:1046080002F00650D9260750DA2202C0DEFF03C0A6
:10461800DDFF20EE01F00650D9260750DA2204C04B
:10462800DFFF06C0D9FF07C0DAFF400EDF1606C05D
:10463800D9FF07C0DAFF000EDB8606C0D9FF07C026
:10464800DAFF000EDB8E0150D8B407D00550020DFA
:10465800350EF324D96E000E06D00550020D610EFA
:10466800F324D96E010EF420DA6E040EDF1A00D09E
:1046780006C001F007C002F01200120035C0D9FFD1
:1046880036C0DAFF000EDFBC010E026E040E351ACA
:10469800080E4418D8A40CD0040132517F0B636E65
:1046A8006350D8B402D0100E01D0040E446E00D06E
:1046B8004704D8A43AD020EE02F03550D926365017
:1046C800DA22380EDE6E040EDD6EDBEC20F0020E10
:1046D8004F18D8A40DD035C0D9FF36C0DAFF040E64
:1046E800DF6E35C0D9FF36C0DAFF000EDB8E120050
:1046F8000250D8A40DD035C0D9FF36C0DAFF480E15
:10470800DF6E35C0D9FF36C0DAFF000EDB8E12002F
:1047180035C0D9FF36C0DAFF080EDF6E35C0D9FFC5
:1047280036C0DAFF000EDB8E120030AE02D0309EAB
:1047380000D0000E476E12001200040130511F0B0A
:10474800E806D8A4120001D0120004013039E8327A
:10475800030BE806D8A4120001D01200040134515A
:10476800D8B435D004013405D8A4120030D01200D2
:104778002ED09E0E506E010E516E000E556E080E14
:10478800546E5380538E12009E0E506E010E516E61
:10479800538E120036C431F037C432F0A60E2D6E97
:1047A800010E2E6E000E336E000E346E308E120027
:1047B800A60E506E010E516E000E556E070E546E09
:1047C800C10E536E120032C481F1538E12000401DF
:1047D8003151000AD8B4CDD7010AD8B4D5D7210AA7
:1047E800D8B4D8D7010AD8B4E3D7030AD8A412009A
:1047F800EAD71200000E0401386F000E0401396F69
:104808003DD0538E03D00401388100D04104D8A490
:1048180041D0040138833ED0538E3CD0538E0401DE
:1048280034BF0BD0040134510F0B016E0150020D3F
:10483800610EF324D96E010E0AD0040134510F0B16
:10484800016E0150020D350EF324D96E000EF420CE
:10485800DA6EDECF02F0DDCF03F000D002C0D9FF60
:1048680003C0DAFFDFAE16D002C0D9FF03C0DAFFFB
:10487800DFA410D0010E0401386F0CD004013051B0
:104888001F0B000AD8B4BDD7010AD8B4C5D7030A8C
:10489800D8B4C4D753AE1200380E506E040E516E01
:1048A8005380020E546E12001200000E0001736F46
:1048B80000016FAF09D000016E6D6F1FD8B06F2B6C
:1048C800010E0001736F00D0000171AF06D0000126
:1048D800706D711FD8B0712B00D0000170510001AC
:1048E8007111D8B42BD0010E0001726F07D00001EE
:1048F800D890703771370001722B00D0000171BF5A
:1049080002D0F5D700D00001705100016E5D0001A2
:10491800715100016F59D8A009D0000170510001F0
:104928006E5F0001715100016F5B00D00001D890EB
:10493800713370330001722FE6D700D00001735134
:104948000001D8B406D000016E6D6F1FD8B06F2B70
:1049580000D06EC06EF06FC06FF012001200000140
:104968006451000165110001661100016711D8B496
:104978003FD0010E0001686F09D00001D89064375C
:104988006537663767370001682B00D0000167BFBD
:1049980002D0F3D700D0000164510001605D00012E
:1049A8006551000161590001665100016259000119
:1049B800675100016359D8A011D00001645100016A
:1049C800605F000165510001615B000166510001F3
:1049D800625B000167510001635B00D00001D89061
:1049E80067336633653364330001682FD4D700D04A
:1049F80060C060F061C061F062C062F063C063F0E3
:104A08001200000E0001E36F000E0001E46F020EB9
:104A18004718D8A41FD020EE01F03D50D9263E50AB
:104A2800DA22080EDF6E20EE02F03D50D9263E5005
:104A3800DA22380EDE6E040EDD6E3DC0D9FF3EC0B0
:104A4800DAFF480EDF6E3DC0D9FF3EC0DAFF000E28
:104A5800DB8E120054500401365D5550040137595D
:104A6800D8B005D036C454F037C455F000D0DBECCC
:104A780020F020EE02F03550D9263650DA22380ED2
:104A8800DE6E040EDD6E35C0D9FF36C0DAFF480E83
:104A9800DF6E35C0D9FF36C0DAFF000EDB8E12009C
:104AA800120002EE00F0800EEE6AE806FDE101EE6B
:104AB80000F0AF0EEE6AE806FDE100EEDDF0160E3E
:104AC800EE6AE806FDE100EE2DF02B0EEE6AE80630
:104AD800FDE1780EF66E540EF76E000EF86E02EEDB
:104AE80080F010EE30F00900F5CFEEFFE550E15010
:104AF800FAE14A0EF66E560EF76E000EF86E01EEEB
:104B0800AFF010EE2AF00900F5CFEEFFE550E150C6
:104B1800FAE1EB0EF66E570EF76E000EF86E09000E
:104B2800F5CFF3F0EA0EF66E570EF76E000EF86E3C
:104B38000900F5CF58F0000EF86E000154EF00F0B0
:104B4800066E000E076E040E086E0150026E036AB0
:104B5800D890023603360650046E056AD89004369B
:104B68000536D8900436053602500426035005222F
:104B7800D89004360536D8900436053604500726F2
:104B88000550082207C0D9FF08C0DAFFDF9E015090
:104B9800D8A407D00650020D610EF324D96E010E79
:104BA80006D00650020D350EF324D96E000EF420FF
:104BB800DA6E07C0DEFF08C0DDFF00D007C0D9FFEE
:104BC80008C0DAFFDF9C20EE04F00750D926085011
:104BD800DA22DF8C12000001F251D8B41200000E64
:104BE8000001756F24D000017551010D71C073F07B
:104BF80072C074F0F35000017327F450000174235D
:104C080073C0F6FF74C0F7FF0001F051010D000EEC
:104C1800F324D96E020EF420DA6E0800F5CFDFFF18
:104C28000001752B0001F02BFEEC26F000D00001EE
:104C38007551010D71C073F072C074F0F35000012A
:104C48007327F4500001742373C0F6FF74C0F7FF94
:104C58000800F5500009D8A4C6D7FEEC26F01200CB
:104C680012000001F251D8B412008A0E00017A6FC6
:104C7800000E00017B6F84C07CF085C07DF086C08B
:104C88007EF087C07FF088C080F089C081F043EC57
:104C980028F0000E0001966F19D000019651010D01
:104CA8008A0EF324D96E000EF420DA6E0001F0515A
:104CB800010D000EF324E16E020EF420E26EDFCF48
:104CC800E7FF0001962B0001F02B00D00001965160
:104CD800010D8A0EF324D96E000EF420DA6EDF502F
:104CE800D8A4DBD7FEEC26F012001200000E4F6E9F
:104CF800000E436E000E0001E36F000E0001E46F2A
:104D0800000E0001E26F000E476E35C0D9FF36C0B5
:104D1800DAFF7F0EDF16040E351A35C0D9FF36C00C
:104D2800DAFF7F0EDF16040E351A3DC0D9FF3EC0EC
:104D3800DAFF7F0EDF16000E536E000E556E000E62
:104D4800546E000E306E000E326E000E316E8CEC1A
:104D58001FF0000E0E6E030E0D6E000E0F6E000E8D
:104D6800106E000E126E000E116EBEEC26F00AECEC
:104D78001EF0120013D01200F1EC2BF01200F3EC2D
:104D88002BF01200F2EC2BF01200EAEC2BF01200E0
:104D9800A1EC23F01200F4EC2BF012000DC013F07C
:104DA8000EC014F01450000AD8B404D07F0AD8A456
:104DB80012001AD01350010AD8B4E7D7030AD8B49E
:104DC8001200010AD8B4E4D7060AD8B41200770A48
:104DD800D8B41200010AD8B4CFD7070AD8B4D2D7AA
:104DE800010AD8A41200CBD71350FF0AD8A4120086
:104DF800D2D71200000E0001706F000E6F6F000115
:104E0800F251D8B41200000E00016E6F000E11D0DE
:104E180000016F4B702B200E446001D00CD060B2A3
:104E28000AD001D008D09CEC28F0000E00016E6F6B
:104E3800010E6D6F00D000016D5100016E11D8A4F4
:104E48000AD0880E00016F5D130E00017059D8B0AA
:104E580002D0DED700D0880E00016F5D130E00016E
:104E68007059D8A01200A394000E0001F26F12002E
:104E78001200000E0001686F000E696F000E6A6F65
:104E8800000E6B6F00D0000160A111D000016451C9
:104E9800000168270001655100016923000166517E
:104EA80000016A230001675100016B2300D0000153
:104EB800D89064376537663767370001D890633311
:104EC80062336133603300016051000161110001F8
:104ED800621100016311D8A4D6D768C060F069C018
:104EE80061F06AC062F06BC063F01200000E01014D
:104EF800A66F4B0EA76F000EA86F000EA96F000ECD
:104F08000101AA6F000E0101AB6F080E0101AC6F21
:104F1800000E0001EA6F1A0E096E010E24EC29F04A
:104F28001E0E096E020E24EC29F0000E016E400ED2
:104F3800026E050E036E400E046E020EE2EC22F0C5
:104F480001C0E0F002C0E1F0000E01017A6F000E2E
:104F580001017B6F000E466E1200F29EF29C000E5D
:104F68000001686F0AD0000E0001606F00016851EF
:104F780044EC29F00001682B00D058500001636F01
:104F8800646B0A0E00016327000E64230001685158
:104F98000001656F666B000163510001655D0001EA
:104FA8006651800A0001676F00016451800A0001A0
:104FB8006759D8A0D8D7F28EF28C1200020E471883
:104FC800D8A403D080EC1DF01200000E476E00013B
:104FD800E251D8A41FD020EE01F03D50D9263E5012
:104FE800DA22080EDF6E20EE02F03D50D9263E5040
:104FF800DA22300EDE6E040EDD6E3DC0D9FF3EC0F3
:10500800DAFF0C0EDF6E3DC0D9FF3EC0DAFF000E9E
:10501800DB8E1200000E0001E26F12001200D5C1F3
:1050280060F0D6C161F0D7C162F0D8C163F06D0EEF
:105038000001646F4E0E656FC60E666F410E676F96
:105048003DEC27F060C0D5F161C0D6F162C0D7F160
:1050580063C0D8F1390E0101D527300ED623000ED2
:10506800D723000ED823FF0E0101D71500016C6F5E
:105078007F0E0101D81500016D6F120012007AC071
:1050880082F07BC083F000017FAF13D07AC0D9FFD4
:105098007BC0DAFF2D0EDF6E00017A4B7B2B0001FF
:1050A8007F1F7E1F7D1F7C6D000E7D237E237F2347
:1050B80000D07AC06DF07BC06EF07CC06FF07DC010
:1050C80070F07EC071F07FC072F080C073F081C054
:1050D80074F0D5EC1BF012001200000E0001666F90
:1050E80018D000016651010D61C064F062C065F01E
:1050F800F35000016427F4500001652364C0F6FFF3
:1051080065C0F7FF0800F550E3EC28F00001662BB6
:1051180000D0000163510001665DD8A0E2D70D0EF2
:10512800E3EC28F00A0EE3EC28F0010E120012005E
:10513800400E0001676F020E0001686F400E00010B
:10514800696F12EC1FF00001F16F0001F051D8B443
:1051580011D04650D8A40ED0000E0001606F020E88
:105168000001616FF0C062F072EC2BF0000E0001DC
:10517800F06F00D0FDEC15F012006AA01ED03BC005
:10518800D9FF3CC0DAFF800EDE18D8A415D035C090
:10519800D9FF36C0DAFF840EDE18D8A40DD03BC084
:1051A800D9FF3CC0DAFF0C0EDF6E3BC0D9FF3CC014
:1051B800DAFF000EDB8E00D06A90659A12000001BB
:1051C800606F00D04C50D8B4FDD79DB803D060C0F4
:1051D800ADFF14D09D984D50010D590EF324D96E92
:1051E800010EF420DA6E60C0DFFF4D2A070E4D6411
:1051F80003D0000E4D6E00D04C0600D09D881200E2
:10520800000E0001606F00D04950D8B4FDD79D9AB8
:105218004B50010D510EF324D96E010EF420DA6EB5
:10522800DF500001606F4B2A070E4B6403D0000E5D
:105238004B6E00D049069D8A000160511200120091
:105248000C6E09A406D0000E016E0C50A4EC25F0DB
:1052580000D009A206D0010E016E0C50A4EC25F076
:1052680000D00C50010D6A0EF3240A6E0F0EF420C4
:105278000B6E0AC0D9FF0BC0DAFF09C0DFFF1200AE
:105288000001616F000EF2BE010E0001626F61C085
:10529800A9FF60C0A8FFA69EA69CA684F29E550EF4
:1052A800A76EAA0EA76EA68200D0A6B2FED7A694B5
:1052B800000162B102D0F29E01D0F28E120000010C
:1052C800656F010E0001646F7B0E0001656105D0FA
:1052D800610E000165610BD000D000016551B3EC8F
:1052E8002AF0D8B004D0000E0001646F00D064C06A
:1052F80063F000016331120012000001626F010EB9
:105308000001616F200E00016219D8B40DD00E0E95
:105318000001626105D0090E0001626105D000D06C
:10532800000E0001616F00D061C060F000016031C3
:10533800120012008980F29EF29CAC9A8B9C00D0DD
:10534800899400D0899200D0899800D0899600D09D
:10535800899A00D0899C00D0899A00D0000E00015B
:10536800616F280E606FCAEC2AF012000001716F9D
:105378000001F251D8B412000001F051010D000EE5
:10538800F324D96E020EF420DA6E71C0DFFF00013B
:10539800F02B3F0E0001F0651200FEEC26F0120023
:1053A800120060C066F061C067F00AD066C0D9FF1D
:1053B80067C0DAFF62C0DFFF0001664B672B00D0D1
:1053C80000016407D8A0650700016429EFE1000126
:1053D8006529D8A4EBD712009D9A9D98480EB86EFF
:1053E800900EAB6E260EAC6E670EAF6E000EB06EF2
:1053F800000E4D6E000E4E6E080E4C6E000E4A6E7C
:10540800000E4B6E000E496E9D8A12004450D8A4BF
:105418001200000E606E000E646E160E626E9F0E15
:10542800666E7B0E646ED08EA584A384F28E01D046
:10543800608660A6FDD7010E446E12001200080EA9
:105448004C6013D04E50010D590EF324D96E010E45
:10545800F420DA6EDF50AD6E4E2A070E4E6403D08C
:10546800000E4E6E00D04C2A12009D9812001200B9
:1054780041542B435753415049443D22202020207A
:105488002020202020202020202020202020202014
:105498002020202020202020202020222C20200016
:1054A800010E896E800E926E000E0F015B6F000E6A
:1054B8008A6EE30E936E200E0F015C6F000E856EF0
:1054C800000E8B6EC70E946E000E0F015D6F1200FA
:1054D800000E426E000E0E6E740E0D6E000E0F6EF4
:1054E800000E106E000E126E000E116EBEEC26F04D
:1054F8006092649402D0659400D065B4FCD7120021
:10550800ABA203D0AB98AB8800D04A50010D510E26
:10551800F324D96E010EF420DA6EAECFDFFF4A2AEB
:10552800070E4A6403D0000E4A6E00D0492A1200C2
:105538000001626F000E0001616F3A0E00016261A6
:1055480008D02F0E0001626504D0010E0001616FC2
:1055580000D061C060F0000160311200120000014B
:10556800626F000E0001616F5B0E0001626108D07E
:10557800400E0001626504D0010E0001616F00D089
:1055880061C060F000016031120012000AD09C0E68
:105598000001626FD70EE82EFED7622FFCD700F00D
:1055A80000D000016007D8A0610700016029EFE181
:1055B80000016129D8A4EBD712000AD0100E00010F
:1055C800766F940EE82EFED7762FFCD700D000D049
:1055D80000017407D8A0750700017429EFE10001E4
:1055E8007529D8A4EBD7120001C007F002C008F053
:1055F80009D007C0D9FF08C0DAFF03C0DFFF074A98
:10560800082A00D00506D8A006060528F2E10628D3
:10561800D8A4EFD71200000161AF0ED060C062F0CD
:1056280061C063F00001621F631F624B632B62C09D
:1056380060F063C061F0120060C060F061C061F0AA
:105648001200C97FF67FF17F9C7FBA7FBF7FB07F52
:10565800EC7FD37FDD7FAB7FE77FA67FA17FB57F20
:10566800CE7FC47FE27FD87F010000006484659804
:105678006082010E426E000E0E6E750E0D6E000EEB
:105688000F6E000E106E000E126E000E116EBEEC44
:1056980026F01200AC8A899C00D0898A00D0000EBE
:1056A8000001616F280E606FCAEC2AF000D0899063
:1056B80000D0F28EF28C1200AC8A898C00D0898AD4
:1056C80000D0000E0001616F280E606FCAEC2AF04E
:1056D80000D0899000D0F28EF28C1200A39446502C
:1056E800D8A40CD060C075F161C076F162C0EBF04F
:1056F800010E0001E96F010E466E00D0A38412006E
:105708000001606F7B0E0001606107D0600E000130
:10571800606503D00001609B00D000016051120059
:105728001200940ED56E6D0ED76E840ED66E6D0E69
:10573800406E840E3F6EF294F28AEFEC2BF012006A
:105748000001606F60C0A9FFA69CA69EA68000F01D
:1057580000F0A85012001200800E9B6E700ED36EDF
:10576800100ED26E00D0D2AEFED7900EB56E1200DB
:10577800E7EC2BF054EC2AF0DDEC2BF0F0EC29F000
:1057880095EC2BF0120060C0D5F161C0D6F1010193
:10579800D76BD86B12000001606F00D09EA8FED7AF
:1057A80060C0ADFF1200F2944050D76E3FC0D6FFE4
:1057B8001200D09EF1949F989F9A1200E10EAF6E4E
:1057C800040EB06E1200B0EC2BF012007AEC27F049
:1057D8001200D59E1200D58E12001200120012007F
:0457E8001200190191
:10741C00000875BE742D7453505300535053007BA9
:10742C00744E0353007500620050006F007300200F
:10743C00004E006F0064006500200052006500766D
:10744C00002E00300033000000000000000000009F
:10745C000000000000000000000000000000000020
:10746C000000000000000000000000000000000907
:10747C00024300020100C0320904000001020201B3
:10748C000005240010010424020205240600010555
:10749C002401000107058103080002090401000210
:1074AC000A000000070502024000000705820240A6
:1074BC0000003803410020004D0069006300720099
:1074CC006F006300680069007000200054006500C4
:1074DC00630068006E006F006C006F00670079003D
:1074EC00200049006E0063002E0012010002020011
:1074FC000008D8040A000100010200010403090479
:10750C000D0A206572726F723A2073657474696E1D
:10751C0067732064617461206372632063686563C0
:10752C006B206661696C65642C2073657474696E7C
:10753C006773206E6F74206C6F616465642E0D0A26
:10754C00000D0A206572726F723A20656570726F59
:10755C006D20646174612063726320636865636B82
:10756C00206661696C65642C2064617461206E6FA7
:10757C0074206C6F616465642E0D0A002065727254
:10758C006F723A20657370206D6F64756C65206343
:10759C00616E6E6F74207365742064656661756CC2
:1075AC007420626561636F6E20636F6E6669672E0F
:1075BC000D0A000D0A20706F776572206379636C79
:1075CC0065206E6F646520746F20726576657274C9
:1075DC0020746F206E6F726D616C206F70657261BC
:1075EC0074696F6E2E0D0A000D0A2073776170702E
:1075FC00696E6720746F204553502070726F6772EC
:10760C00616D6D696E6720706173737468726F75EC
:10761C006768206D6F64652E0D0A002066726571B7
:10762C00202D2073657420626561636F6E206D6F11
:10763C006465206672657120686F7070696E672072
:10764C00286379636C6963292E0D0A000D0A206585
:10765C006E74657220616C74697475646520282D74
:10766C002B20636D2072656C617469766520746F74
:10767C00207365616C6576656C293A000D0A20658E
:10768C0072726F723A20657370206D6F64756C65E1
:10769C002063616E6E6F742064697361626C652027
:1076AC00626561636F6E732E0D0A000D0A206572A0
:1076BC00726F723A20657370206D6F64756C652003
:1076CC0063616E6E6F74206368616E6765206368BA
:1076DC00616E6E656C2E0D0A000D0A206572726F5C
:1076EC00723A20657370206D6F64756C65206361F0
:1076FC006E6E6F7420656E61626C6520626561638D
